:0200000280007C
:10000000A8290720D50D0800D10D0800D10D080042
:10001000D10D0800D10D0800D10D0800000000002E
:10002000000000000000000000000000D10D0800EA
:10003000D10D080000000000D10D0800C106080025
:10004000D10D0800D10D0800D10D0800D10D080018
:10005000D10D0800D10D0800D10D0800D10D080008
:10006000D10D0800D10D080000000000C1110800EA
:10007000DD110800F9110800151208000000000049
:1000800000000000D10D0800D10D0800D10D0800BE
:10009000D10D0800D10D0800D10D0800D10D0800C8
:1000A000D10D080000000000D10D0800D5060800A1
:1000B000D10D0800D10D0800D10D0800D10D0800A8
:1000C000D10D0800D10D0800D10D0800D10D080098
:1000D000D10D0800D10D0800D10D0800D10D080088
:1000E000D10D0800D10D0800D10D0800D10D080078
:1000F000D10D080008B50548054B1B1A062B00D882
:1001000008BD044B002BFBD09847F9E7D0500800FE
:10011000D35008000000000008B50748074B1B1A21
:100120009B1003EBD373591000D108BD044A002A79
:10013000FBD09047F9E700BFD0500800D05008002E
:100140000000000010B5064C237843B9FFF7D2FF3A
:10015000044B13B10448AFF300800123237010BD9A
:10016000C808072000000000D050080008B5084B60
:100170001BB108480849AFF300800848036813B171
:10018000074B03B19847BDE80840FFF7C5BF00BF64
:1001900000000000D0500800CC080720D050080014
:1001A000000000004FF4C063C4F20E031A6B22F08B
:1001B0007002104318639B6E13F0080F02BF4FF4D8
:1001C00000634FF4C061C4F20E0103D006E0013BAE
:1001D00000D125E08A6E12F0080FF8D04FF4C0630A
:1001E000C4F20E031A6B22F0030242F002021A63F9
:1001F0009B6E13F0080F02BF4FF400634FF4C06111
:10020000C4F20E0105D04FF000007047013B00D151
:1002100009E08A6E12F0080FF8D04FF00000704726
:100220004FF0010070474FF00100704780B14FF46C
:10023000C061C4F20E010B6A4FF6FC72CFF6C862C1
:100240001A404FF00203C0F2371313430B6270479A
:100250004FF4C063C4F20E031A6A22F45C1222F057
:10026000030242F45C1242F001024FEA016142EAE9
:10027000114119624FF4C062C4F20E02936E13F082
:10028000010FFBD04FF4C063C4F20E031A6A42F0B0
:100290009B7242F480321A62704700BF4FF4C06311
:1002A000C4F20E03986E00F4803070474FF4C063C0
:1002B000C4F20E034FF000529A6270474FF4C063CD
:1002C000C4F20E03986E00F0020070472C2835D857
:1002D0001F2817D84FF4C063C4F20E039A694FF079
:1002E000010303FA00F31A4093422AD04FF00103AE
:1002F00003FA00F04FF4C063C4F20E0318614FF02C
:10030000000070474FF4C063C4F20E03D3F8082115
:10031000A0F120004FF0010303FA00F31A409342CA
:1003200012D04FF0010303FA00F04FF4C063C4F29F
:100330000E03C3F800014FF0000070474FF00100BA
:1003400070474FF0000070474FF00000704700BF4B
:1003500010B44FEA811143184FF0020444504FF09B
:10036000FF319962196A5A6010BC70474FEA8111D7
:100370004FF00503435070474FEA81114FF00203DD
:100380004350704700EB8111CA61704700EB811147
:100390004A62704700EB8111086A7047F0B486B07A
:1003A0004FF0020401944FF0080402944FF020042F
:1003B00003944FF0800404940A9C4FEAD4340594CB
:1003C0004FEA5144B0EB510F20D8A04227D201AEE2
:1003D0004FF0010456F8045FB1FBF5F54FEA1547FD
:1003E000854216D387421CD904F10104052CF1D1B2
:1003F0004FF0000018E006A800EB840151F8141C2F
:1004000011604BB11C604FF001000DE04FF0000097
:100410000AE04FF0000007E04FF0010004E04FF069
:100420000004002AE7D1ECE706B0F0BC704700BF3B
:10043000F0B583B004460D464FF40063C4F20E03DA
:1004400098420DD14FF40066C4F20E0641F209370E
:10045000C0F2080730462946B8470028FAD12BE0F9
:100460004FF40043C4F2090398420FD14FF4004601
:10047000C4F2090641F24947C0F20807304601A913
:10048000B8470028FAD1019B2B702BE04FF4404372
:10049000C4F2090398420FD14FF44044C4F2090456
:1004A00041F24946C0F20806204601A9B04700289B
:1004B000FAD1019B2B702AE04FF00003C4F20A032B
:1004C0009C420FD14FF00004C4F20A0441F24946A5
:1004D000C0F20806204601A9B0470028FAD1019BC6
:1004E0002B7014E04FF48043C4F20A039C420ED1F7
:1004F0004FF48044C4F20A0441F24946C0F20806AF
:10050000204601A9B0470028FAD1019B2B7003B007
:10051000F0BD00BF70B50C464FF40063C4F20E038B
:1005200098420FD14FF40065C4F20E0541F2F9264E
:10053000C0F2080628462146B0470028FAD14FF0FD
:10054000010070BD4FF40043C4F2090398420FD17B
:100550004FF40045C4F2090541F23146C0F20806E5
:1005600028462146B0470028FAD14FF0010070BD5F
:100570004FF44043C4F2090398420FD14FF4404571
:10058000C4F2090541F23146C0F208062846214668
:10059000B0470028FAD14FF0010070BD4FF00003C2
:1005A000C4F20A0398420FD14FF00005C4F20A05C5
:1005B00041F23146C0F2080628462146B0470028DD
:1005C000FAD14FF0010070BD4FF48043C4F20A032A
:1005D00098420FD14FF48045C4F20A0541F23146EA
:1005E000C0F2080628462146B0470028FAD14FF04D
:1005F000010070BD4FF0000070BD00BF08B590B99C
:1006000040F20003C2F207031A7882F001021A7066
:100610001B78002B36D14FF03B0040F6A133C0F2DF
:100620000803984708BD40F20103C2F207031A7895
:1006300082F001021A701B7893B14FF0550040F61A
:10064000C133C0F2080398474FF00000C4F208001D
:100650004FF0000140F26D33C0F20803984708BD27
:100660004FF0550040F6A133C0F2080398474FF011
:100670000000C4F208004FF0000140F27933C0F2EC
:100680000803984708BD00BF08B5B1F1805F08BFF7
:100690000D2806D14FF0010040F2FD53C0F20803CF
:1006A000984708BD08B5B1F5807F08BF0E2806D170
:1006B0004FF0000040F2FD53C0F20803984708BD18
:1006C00040F6E403C2F207031A6802F101021A605D
:1006D000704700BF00B583B04FF00000C4F20800BF
:1006E0004FF0000140F29533C0F2080398470190A3
:1006F000019B4FF0550040F6E133C0F208039847E4
:1007000044F6FC50C0F2080041F25953C0F208030D
:10071000984703B000BD00BF2DE9F04F89B041F20A
:100720001D33C0F20803984741F26143C0F2080349
:1007300098474FF0080040F2CD25C0F20805A847C1
:1007400040F69C13C2F207034FF40066C4F20E0693
:100750001E6040F69813C2F2070340F21552C0F231
:1007600008021A6040F69413C2F2070340F23142C5
:10077000C0F208021A604FF43D44C0F201540494E0
:100780004FF4E13305934FF4006306934FF00800F4
:10079000A847304604A941F2B923C0F2080398479C
:1007A00040F20807C2F207073B6898684FF0000163
:1007B00041F21D66C0F20806B0473B6858684FF02A
:1007C0000001B04744F60060C0F2080041F20D6637
:1007D000C0F20806B04744F65C60C0F20800B047BB
:1007E0004EF21003CEF2000344F61F02C0F20102E3
:1007F0005A604FF46D42CEF200024FF0F00182F8E1
:1008000023104FF000079F604FF007021A6044F674
:100810008C60C0F20800B0474FF01B00A84700945E
:100820004FF00400214602AA03AB40F29D35C0F20E
:100830000805A8473D46C4F2080528463946039AEC
:1008400042F4804240F25133C0F208039847029BC1
:10085000B4FBF3F2284639464FEA920240F2853360
:10086000C0F2080398474FF46143CEF200034FF003
:1008700000621A60284639464FF0100240F28D336C
:10088000C0F20803984740F20103C2F207031B7845
:1008900043B13846C4F20800394640F26D33C0F225
:1008A0000803984744F69C60C0F2080041F20D64CA
:1008B000C0F20804A0474FF00E0040F2CD2BC0F26A
:1008C000080BD8474FF4A055C4F20E0528464FF444
:1008D00080714FF00A0240F66929C0F20809C84742
:1008E00040F2A563C0F20803009328464FF00E01C2
:1008F0004FF480724FF0790341F27118C0F208088A
:10090000C0474FF4614ACEF2000A4FF48043CAF860
:10091000003028464FF00E014FF0000241F231271F
:10092000C0F20807B84728464FF4807140F6FD260C
:10093000C0F20806B0474FF00D00D8474FF490556D
:10094000C4F20E0528464FF080514FF00A02C84706
:1009500040F28963C0F20803009328464FF00D016E
:100960004FF080524FF05903C0474FF40053CAF87C
:10097000003028464FF00D014FF00002B8472846DE
:100980004FF08051B04744F6C060C0F20800A04765
:1009900044F6F860C0F20800A04740F20005C2F239
:1009A000070540F6E404C2F2070440F2F31640F6ED
:1009B000E137C0F208072B78002BFCD02B785BB115
:1009C0004FF03B00B84744F63070C0F2080041F2E7
:1009D0005953C0F208039847226823689B1AB34210
:1009E000FBD9E8E740F6E803C2F207031B6843B906
:1009F00040F6E803C2F2070342F6A812C2F2070269
:100A00001A6040F6E803C2F207031A68101818606B
:100A1000104670474FF0FF30704700BF4FF400534F
:100A20004B604FF0000070474FF00100704700BF6F
:100A30004FF00000704700BF08B5014644F634701F
:100A4000C0F2080041F25953C0F208039847FEE78C
:100A5000704700BF4FF0FF30704700BF0AB14166DA
:100A600070470166704700BFC0F884104FEA420229
:100A70004FF40043B3FBF2F303F1FF334FEA834338
:100A80004FEA9343C0F88C30704700BF4264B1F125
:100A9000805F16D004D8C1B1B1F1006F14D109E064
:100AA000B1F1405F11D0B1F1605F0ED0B1F1205FC4
:100AB0000AD17047036F016F0B4023EA02030367FB
:100AC00002E0036F134303674260704712F0100F98
:100AD00010D0C0F8B01012F0200F14BFC0F8D4101E
:100AE000C0F8D01012F0400F14BFC0F8C010C0F80A
:100AF000C4107047C0F8B410704700BFC36C0164E5
:100B0000704700BF416470472DE9F04104460D462F
:100B10001746984640F60536C0F20806B04720460C
:100B20002946069A40F65D26C0F20806B047B8F19D
:100B3000000F01D0256500E065650FB1256300E079
:100B4000656325612560BDE8F08100BF70B504468E
:100B50000D46164640F60533C0F208039847204676
:100B6000294606F0010240F65D23C0F208039847CB
:100B700016F00A0F14BF2562656216F0020F18BF47
:100B8000C4F8805004D116F0080F18BFC4F8805084
:100B90006561256070BD00BFC06C7047806C704798
:100BA0004FEA501303F5001303F207734FEA432390
:100BB00000F01F004FF0010202FA00F018637047C6
:100BC0004FEA501303F5001303F207734FEA432370
:100BD00000F01F004FF0010202FA00F05863704766
:100BE0004FEA501303F5001303F207734FEA432350
:100BF0009A6B00F01F004FF0010101FA00F0104263
:100C000014BF586318637047F0B583B00D464FEAC0
:100C1000501606F5001606F207764FEA462601F052
:100C2000F044B4F1205F42D006D8B4F1006F0AD08E
:100C3000B4F1805F64D120E0B4F1405F46D0B4F1FC
:100C4000605F5DD142E000F01F024FF0010404FA42
:100C500002F730464FF000613A4640F68D23C0F26D
:100C6000080398473046394605EA040240F65D23FA
:100C7000C0F208039847204644E000F01F024FF0FE
:100C8000010404FA02F730464FF080513A4640F62C
:100C90008D23C0F2080398473046394605EA04021E
:100CA00040F65D23C0F20803984720462AE000F092
:100CB0001F014FF00104304604FA01F12A4640F6C4
:100CC0004D33C0F20803984720461BE000F01F0296
:100CD0004FF0010705F0605305EA07010091304627
:100CE00007FA02F1B3F1605F14BF00220122C5F3DD
:100CF000800340F60934C0F20804A047384601E0FA
:100D00004FF0000003B0F0BDF0B583B007460E46CB
:100D1000154602F0F044B4F1205F36D006D8B4F1A5
:100D2000006F0AD0B4F1805F4DD11AE0B4F1405F9A
:100D300033D0B4F1605F46D12FE04FF0006132460E
:100D400040F68D23C0F2080398473846314605F037
:100D5000010240F65D23C0F2080398474FF00100FE
:100D600033E04FF08051324640F68D23C0F2080345
:100D700098473846314605F0010240F65D23C0F23F
:100D8000080398474FF001001FE040F64D33C0F2D2
:100D9000080398474FF0010017E005F0605205F096
:100DA0000103009338463146B2F1605F14BF002260
:100DB0000122C5F3800340F60934C0F20804A047BD
:100DC0004FF0010001E04FF0000003B0F0BD00BFA4
:100DD000FEE700BF10B545F2D002C0F2080240F2B3
:100DE0000003C2F207039A4203D02B4B2B4A9A42CC
:100DF00004D32B4B2B4A9A4218D327E02A4B2B4C77
:100E0000E41A24F0030404F104044FF0000340F258
:100E10000000C2F2070045F2D001C0F208015A58A2
:100E20001A5003F10403A342F9D1E2E7204B214910
:100E3000C91A21F0030140F6C802C2F207028A185B
:100E40004FF0000143F8041F9342FBD140F200032E
:100E5000C0F2080323F0604121F07F014FF46D429E
:100E6000CEF20002916003F16043B3F5801F3FBFF3
:100E70004FF46D43CEF200039A6842F0005238BF3F
:100E80009A6041F20D53C0F20803984740F219737B
:100E9000C0F208039847FEE7C808072000000720B3
:100EA000A4090720C808072004000720CB08072052
:100EB000C40807209F0907204FF4C063C4F20E0343
:100EC0001B6B03F00303032B00F2B180DFE803F098
:100ED00002144F4F41F61023C4F20E035B6913F066
:100EE000800F40F20403C2F2070314BF4FF4004224
:100EF0004FF4FA421A609AE04FF4C063C4F20E0352
:100F00001B6A13F0807F09D040F20403C2F207038A
:100F10004FF4D852C0F2B7021A6088E040F20403DE
:100F2000C2F207034FF41062C0F23D021A604FF4A0
:100F3000C063C4F20E031B6A03F07003102B02D0CF
:100F4000202B74D109E040F20403C2F207034FF4EE
:100F50009052C0F27A021A6069E040F20403C2F2D1
:100F600007034FF4D852C0F2B7021A605FE04FF4A3
:100F7000C063C4F20E031B6A13F0807F09D040F2F5
:100F80000403C2F207034FF4D852C0F2B7021A604A
:100F900027E040F20403C2F207034FF41062C0F2EC
:100FA0003D021A604FF4C063C4F20E031B6A03F0E3
:100FB0007003102B02D0202B13D109E040F2040360
:100FC000C2F207034FF49052C0F27A021A6008E0AE
:100FD00040F20403C2F207034FF4D852C0F2B70242
:100FE0001A604FF4C063C4F20E031B6B03F00303DB
:100FF000022B13D14FF4C063C4F20E03986A996AAE
:1010000040F20403C2F20703C0F30A401A6800FB6F
:101010000222C9B2B2FBF1F21A6008E040F2040306
:10102000C2F207034FF4E052C0F64E621A604FF46A
:10103000C063C4F20E031B6B03F07003702B0ED160
:1010400040F20403C2F2070319684AF6AB22CAF65B
:10105000AA22A2FB01024FEA52021A6070474FF423
:10106000C063C4F20E03196B40F20403C2F207031B
:10107000C1F302111A6822FA01F21A60704700BF28
:1010800045F29F23C0F2571398420CD84FF42063C7
:10109000C4F20E034FF000021A604FF44063C4F232
:1010A0000E031A6070474CF67F43C0F20623984245
:1010B0000CD84FF42063C4F20E034FF480721A6010
:1010C0004FF44063C4F20E031A6070474BF23F7353
:1010D000C0F2283398420CD84FF42063C4F20E03B8
:1010E0004FF400721A604FF44063C4F20E031A60AA
:1010F000704742F67F73C0F2A64398424FF42063D4
:10110000C4F20E0394BF4FF440724FF480621A6031
:101110004FF44063C4F20E031A607047F8B50446FA
:101120000E4640F69933C0F208039847054620461C
:1011300040F69D33C0F208039847054014D00B4C8D
:10114000274654F80C3CB3420AD154F8081C2942F3
:1011500006D023683046984754F8083C25EA030532
:1011600004F11004002DEBD1F8BD00BFFC080720EE
:10117000F8B540F6EC04C2F207042468062C1CD82B
:1011800040F6F005C2F207054FEA0417EE19E951DF
:101190007260B3600699F16040F6EC01C2F207019B
:1011A00004F101040C6011461A4640F6CD23C0F24A
:1011B000080398474FF00000F8BD4FF00100F8BD5C
:1011C00008B54FF46060C4F20E004FF00B0141F21D
:1011D0001D13C0F20803984708BD00BF08B54FF4BF
:1011E0008050C4F20E004FF00C0141F21D13C0F20A
:1011F0000803984708BD00BF08B54FF49050C4F2EB
:101200000E004FF00D0141F21D13C0F20803984784
:1012100008BD00BF08B54FF4A050C4F20E004FF057
:101220000E0141F21D13C0F20803984708BD00BF2C
:1012300070B505460C46164640F69933C0F20803D1
:10124000984728464FF0FF3140F60533C0F20803B7
:1012500098474FEA541304F01F024FF0010101FABE
:1012600002F14FF46140CEF2000003F1200240F899
:10127000221003F1600240F82210002C0BDA04F077
:101280000F044FEA0616F6B24EF6FC42CEF200020A
:10129000A218167608E04FEA0616F6B204F160448A
:1012A00004F5614484F800634FF46142CEF2000219
:1012B00042F8231070BD00BF10B44FF0AC030360C0
:1012C0000A684B68B2FBF3F34FEA131303F1FF34E0
:1012D0004FF6FE7294429FBF03628B68436040F2F8
:1012E00002239FBFC0F8203150230360002088BF35
:1012F000012010BC704700BF436913F0020F1ABFF2
:10130000C161002001207047436913F0010F1DBF28
:1013100083690B7000200120704700BF10B54FF4A7
:101320003D40C0F2015041F28103C0F208039847EA
:101330004FF000004FF03E0140F22D23C0F20803B1
:10134000984740F29D24C0F20804A0470028FCD032
:1013500040F2AD23C0F2080398474FF4C063C4F2D3
:101360000E0343F60172C2F20D029A6240F2BD24EE
:10137000C0F20804A0470028FCD04FF0100040F253
:10138000A513C0F20803984740F6B963C0F20803FA
:10139000984710BD2DE9F0410C469046A8B9002AA7
:1013A00017DD8F1840F69C16C2F2070640F694151A
:1013B000C2F2070530682B682146984704F1010402
:1013C000BC42F7D14046BDE8F0814FF0FF30BDE8A8
:1013D000F0814FF00000BDE8F08100BF2DE9F04141
:1013E0000E46154600F1FF30022816D8C2B14FF064
:1013F000000440F69C18C2F2070840F69817C2F2A3
:101400000707D8F800003B68315D984700280ADBE1
:1014100004F10104A542F4D107E04FF0FF3404E0E9
:101420004FF0000401E04FF0FF342046BDE8F081AA
:10143000436913F0020F1FBFC905C90DC161002028
:1014400008BF0120704700BF436913F0010F1FBFA1
:101450008369DB05DB0D0B6014BF002001207047A2
:1014600010B541F65023C4F20E034FF400425A6007
:101470004FF03B004FF0605140F60944C0F20804C1
:10148000A0474FF055004FF06051A0474FF0560075
:101490004FF06051A0474FF068004FF07901C2F65D
:1014A0000001A0474FF05C004FF00101C2F60001BF
:1014B000A0474FF46060C4F20E004FF440714FF04B
:1014C000006240F60953C0F20803984710BD00BF00
:1014D000014600200246034600F044BE70B5094BA9
:1014E000094C0025E41AA41003EB840602E07259AB
:1014F0009047013C043D002CF9D1BDE8704003F059
:1015000073BD00BFF44F0800F84F080070B50E4BD4
:101510000E4D0024ED1AAD101E4603E056F82420AF
:1015200090470134AC42F9D103F054FD084D094B0A
:101530000024ED1AAD101E4603E056F82420904713
:101540000134AC42F9D170BDE04F0800E04F080013
:10155000E84F0800E04F08000FB407B5064904AB98
:10156000086853F8042B8168019300F013F9BDE873
:101570000E4004B0704700BF080007200EB403B54A
:1015800003AB53F8042B8168019300F003F9BDE825
:101590000C4003B0704700BF8218034601E003F817
:1015A000011B9342FBD1704730B5054689B0084610
:1015B0000C4600F0B1F8134A0494069201228318F5
:1015C000039304AB0193022302930F4B07921B6812
:1015D00005909B689A8902F4005109B231B942F42E
:1015E00000529A815A6E22F400525A662846A9681F
:1015F00001AA01F0FFF800280CBF0A204FF0FF30CD
:1016000009B030BD564F080008000720024B0146C4
:101610001868FFF7C9BF00BF0800072000290CBFEA
:10162000022200224FF4806300F000B82DE9F0415F
:101630001D46374B044618680E461746984618B1A3
:10164000826B0AB900F0E6FE022F5DD8002D5BDB4D
:10165000D8F80000214600F06FFE00236360A3610C
:10166000A38903F080031BB223B1294B21691868B9
:1016700001F00CF8A389022F23F08303A38112D079
:1016800036BB002D08BF4FF48065284601F0F0FA04
:101690000646C8B94FF4806001F0EAFA064688B9F8
:1016A0004FF0FF3000E00020A38943F00203A38144
:1016B0000023A36004F143032360236101236361DA
:1016C000BDE8F0814FF48065A38943F08003A381D6
:1016D000012F05D1A38943F00103A3816B42A361CC
:1016E0000B4B0C4A1B68DA63A389266003F00800E1
:1016F00000B22661656148B113F0030F18BF0025E1
:10170000A5600020BDE8F0814FF0FF30BDE8F0811A
:101710000800072089230800034613F8012B002A3C
:10172000FBD1181A0138704793682DE9F0478146BC
:101730000F4614461BB953601846BDE8F0874B6E40
:101740009B0420D5156818E055F8043C55F808AC02
:101750004FEA9308002608E048465AF826103A4611
:1017600000F0D4FE431C10D001364645F4DBA368DC
:101770004FEA8808C8EB0303A360A3680835002B71
:10178000E2D1184601E001F035F80023A360636060
:10179000BDE8F0872DE9F04F8946ADF2D44D1446EF
:1017A0001E46834618B1836B0BB900F033FEB9F8BF
:1017B0000C3003F4005212B24AB943F40053A9F8B2
:1017C0000C30D9F8643023F40053C9F86430B9F808
:1017D0000C3003F008031BB24BB1D9F8103033B111
:1017E000B9F80C2002F01A030A2B49D10AE0584636
:1017F000494600F057FC0028F2D04FF0FF3004902B
:1018000000F03BBCB9F80E30190439D4ADF876308D
:10181000D9F81C3022F002022193D9F82430ADF817
:101820007420239334ABD9F864201A931E934FF499
:1018300080631C931F9300233392209358461AA968
:1018400022463346FFF7A6FF0028049009DB1AA9B9
:10185000584600F071FD0499002818BF4FF0FF3181
:101860000491BDF8743003F040031BB2002B00F06C
:101870000484B9F80C3043F04003A9F80C30FCE3C1
:10188000002334AA0D920F930E93039407930493AD
:101890009046039B1C4613F8012B1AB9039AA51A0C
:1018A00003D11DE0252AF5D1F8E7039B88E828003D
:1018B0000F9B5B190F930E9B0133072B0E9302DCDA
:1018C00008F1080809E0584649460DAAFFF72CFF21
:1018D000002840F0CA830DF1D00804984019049004
:1018E0002378002B00F0BA830134002200210394F6
:1018F0008DF82F104FF0FF3C069217460A2404E0A3
:101900001A4602E01E464FF0FF3C039810F8013BD8
:101910000390632B00F0A68026DC392B15DC312BDD
:1019200080F282802B2BEBD007DC232B4DD02A2B8F
:101930004ED0202B40F00E8243E02E2B53D0302B84
:101940006FD02D2B40F006824AE04F2B00F0DD8057
:1019500003DC442B40F0FE818CE0552B00F0248109
:10196000582B40F0F78127E06F2B00F0D0800EDC81
:10197000692B1ED005DC642B1BD0682B40F0EA815C
:1019800060E06C2B61D06E2B40F0E4819CE0732B07
:1019900000F0EA8006DC702B00F0D780712B40F05D
:1019A000D9815CE0752B00F00181782B40F0D28169
:1019B00016E18DF82F2061E0A0498DF82F200791C6
:1019C00012E1002A08BF20229FE747F001079CE7A9
:1019D000331D3668002E069611DA704206901E46B8
:1019E00047F0040791E7039911F8013B2A2B039173
:1019F0000ED1D6F800C0331DBCF1000F82DB1E46AD
:101A000083E7039804FB0C1C10F8013B039001E0F2
:101A10004FF0000CA3F130010929F2D94CEAEC7C1B
:101A200077E747F0800770E703980021303B04FB1D
:101A3000013110F8013BA3F13005092D0390F5D9D0
:101A4000069166E747F040075FE703990B786C2B38
:101A500002D10131039102E047F0100755E747F04A
:101A6000200752E7336800228DF840308DF82F2090
:101A7000043679E18DF82F2047F01007BA0607D514
:101A8000073626F0070303F10806D3E900450FE007
:101A900017F0100F06F1040301D0326805E017F0CB
:101AA000400F326801D014B200E01446E5171E461C
:101AB000002C75F1000080F2C5802D23644265EB97
:101AC00045058DF82F30BDE017F0200F8DF82F2041
:101AD00006F1040205D0049B3168D8170B604860FA
:101AE00004E0FB0604D53368049919601646D0E675
:101AF00017F0400F326814BF0498049906F10403EC
:101B000014BF108011601E46C3E647F0100717F09F
:101B1000200308D0073626F0070303F10806D3E9AF
:101B20000045002385E017F0100106F1040200D003
:101B300006E017F0400303D0348800251646F0E78E
:101B4000316800250C46164673E033683C4A1C4653
:101B500030238DF830307823002547F002078DF8C8
:101B600031300436079263E03346D3F800A00020FA
:101B70000436BCF1000F8DF82F00504610DB624692
:101B80000021CDF808C001F07FFADDF808C0002878
:101B900000F0F080CAEB0004644500F3EE80EDE055
:101BA000FFF7BAFD0446E9E047F01007BD0607D588
:101BB000073626F0070303F10806D3E900450DE0D8
:101BC00017F0100F06F1040300D003E07C0601D5E6
:101BD000348801E03268144600251E46012328E0BF
:101BE00017488DF82F200790B80607D5073626F03E
:101BF000070202F10806D2E900450DE017F0100FC8
:101C000006F1040200D003E0790601D5348801E032
:101C100031680C4600251646FA0709D554EA050135
:101C200006D030228DF830208DF8313047F0020791
:101C3000022300228DF82F2005E000BF784F080016
:101C4000894F08000123BCF1000FA8BF27F08007CF
:101C500054EA050002D1BCF1000F6AD0012B1FD05D
:101C6000022B47D00DF167030720E10804EA0002C8
:101C700041EA4571E80830320C460546D2B254EAD2
:101C800005019A461A7003F1FF33EDD1F80751466A
:101C90005AD5302A58D09A46302301F8013C53E0F7
:101CA000002D08BF0A2C05D230340DF1400A0AF885
:101CB000274F49E00DF167020592204629460A2286
:101CC0000023CDF808C001F03DFD059B303203F83C
:101CD0000129204629460A22DDF814A00593002395
:101CE00001F030FD04460D4654EA0500DDF808C059
:101CF000E3D129E00DF1670105910F20002104EAED
:101D0000000205EA0103CDE900230799009BDDF8F5
:101D100014A0CA181378504600F80139230943EA81
:101D200005732A091C46154654EA05010590E4D1BD
:101D30000AE03BB9F90705D50DF1400A30230AF84E
:101D4000273F01E00DF1680A1AACCAEB0404CDF894
:101D500014C015E08DF82F20002B00F07F810022A9
:101D60008DF840308DF82F200023012405930DF1CC
:101D7000400A05E06446059002E0644600230593AE
:101D8000059D9DF82F30AC42A8BF254603B1013513
:101D900017F00203089318BF023517F08403099364
:101DA0003CD10698431B002B1EDC37E01022C8F8FC
:101DB00004200F9AA74910320F920E9AC8F800100B
:101DC0000132072A0E9202DC08F108080BE058469F
:101DD00049460DAA0293FFF7A7FC029B002840F09A
:101DE00044810DF1D008103B102BDFDC994A88E8C4
:101DF0000C000F9AD3180F930E9B0133072B0E93F1
:101E000002DC08F1080809E0584649460DAAFFF728
:101E10008BFC002840F029810DF1D0089DF82F207F
:101E20000DF12F03CAB1C8F800300123C8F80430FF
:101E30000F9B01330F930E9B0133072B0E9302DC94
:101E400008F1080809E0584649460DAAFFF76CFC5E
:101E5000002840F00A810DF1D008089BD3B10CABEB
:101E6000C8F800300223C8F804300F9B02330F93E8
:101E70000E9B0133072B0E9302DC08F1080809E0E2
:101E8000584649460DAAFFF74FFC002840F0ED8068
:101E90000DF1D008099B802B3CD10698431B002BE9
:101EA0001EDC37E01022C8F804200F9A6A4910326D
:101EB0000F920E9AC8F800100132072A0E9202DC27
:101EC00008F108080BE0584649460DAA0293FFF7AF
:101ED0002BFC029B002840F0C8800DF1D008103B7D
:101EE000102BDFDC5C4A88E80C000F9AD3180F93A4
:101EF0000E9B0133072B0E9302DC08F1080809E062
:101F0000584649460DAAFFF70FFC002840F0AD8067
:101F10000DF1D0080598031B002B1EDC36E01022C3
:101F2000C8F804200F9A4C4910320F920E9AC8F844
:101F300000100132072A0E9202DC08F108080BE0BB
:101F4000584649460DAA0293FFF7EEFB029B002874
:101F500040F08B800DF1D008103B102BDFDC3E4AA7
:101F600088E80C000F9AD3180F930E9B0133072BB0
:101F70000E9302DC08F1080808E0584649460DAA0D
:101F8000FFF7D2FB002870D10DF1D0080F9BC8F8E5
:101F900004401C190E9BC8F800A00133072B0F94B6
:101FA0000E9302DC08F1080307E0584649460DAAE3
:101FB000FFF7BAFB002858D134AB7A070AD4049B48
:101FC00006988542ACBF5B191B1804930F9B002B2E
:101FD00033D037E006994F1B002F16DCEFE70F9A3E
:101FE00083E8100110320F920E9A0132072A0E92E6
:101FF00001DC083307E0584649460DAAFFF794FB79
:10200000002832D134AB103F02E0124C4FF01008E0
:10201000102FE4DC0F4A83E884000F9BDF190E9B2E
:102020000F970133072B0E93C9DD584649460DAA79
:10203000FFF77AFB0028C2D017E000220E920DF1C4
:10204000D00826E4584649460DAAFFF76DFB002844
:10205000F3D00AE0584F0800684F08000F9B23B1E7
:10206000584649460DAAFFF75FFBB9F80C3003F05C
:1020700040031BB2002B7FF4C0AB049835B00DF5C4
:10208000806DBDE8F08F30B51346054A05460C4615
:10209000106829462246BDE83040FFF77BBB00BFF1
:1020A0000800072038B52E4B054618680C4618B1B5
:1020B000836B0BB900F0AEF9A38903F0080212B2EA
:1020C0000ABB03F0100212B212B909222A603FE0E3
:1020D00003F004031BB293B1216B41B104F140033F
:1020E000994202D0284600F0D1FA00232363A38945
:1020F00023F02403A3810023636023692360A38961
:1021000043F00803A38123694BB9A38903F4207327
:10211000B3F5007F03D02846214600F03DFDA3899A
:1021200013F0010205D00023A36063695B42A36141
:1021300007E003F002031BB20BB9636900E013462A
:10214000A360236953B9A38903F0800000B230B1C2
:1021500043F04003A3814FF0FF3038BD002038BD6D
:10216000080007202DE9F8439846234B06461C68D3
:102170000F46D4F84801914618B904F5A670C4F882
:10218000480141681F2916DD1C4B1BB94FF0FF3079
:10219000BDE8F8834FF4C87000F06AFD0028F5D060
:1021A000D4F84811002545600160C4F84801C0F822
:1021B0008851C0F88C51B6B14468012202FA04F289
:1021C000D0F8881100EB84031143022EC3F88890E5
:1021D000C0F888111C46C3F8088104D1D0F88C31AE
:1021E0001A43C0F88C2143689A1C013340F82270CE
:1021F00043600020BDE8F883504F0800712C0800B0
:10220000024B13B10248FFF763B9704700000000AA
:10221000DD1408008A892DE9F04102F008031BB2A1
:1022200005460C46002B63D142F400638B814B685A
:10223000002B03DCCB6B002B00DC18E0A66AB6B1E8
:1022400002F48052002312B22F682B600AB1226D73
:1022500010E001232846E169B0470246013009D168
:102260002B683BB11D2B01D0162B56D12F600020BF
:10227000BDE8F081A38903F004031BB22BB16368AE
:10228000D21A236B0BB1E36BD21AE1690023A66A61
:102290002846B047411C05D12B681BB11D2B01D02E
:1022A000162B1FD1A38923F40062A2810022626051
:1022B00003F4805322691BB2226023B1421C01D176
:1022C0002B6803B92065216B2F600029CFD004F162
:1022D0004003994202D0284600F0D8F9002020633C
:1022E000BDE8F081A38943F04003A381BDE8F081FC
:1022F0000E69002EBBD00B680E60C6EB0308930777
:102300000CBF4B6900238B6012E0676A2846E169C5
:1023100032464346B847002807DCA3894FF0FF3018
:1023200043F04003A381BDE8F0813618C0EB0808F4
:10233000B8F1000FE9DC9AE738B50C46054618B14C
:10234000836B0BB900F066F8B4F90C0028B128468D
:102350002146BDE83840FFF75DBF38BD014620B9D2
:10236000044B0549186800F0B2BB044B1868FFF72E
:10237000E3BF00BF504F08003923080008000720C2
:102380000020704700207047014900F082BB00BF69
:10239000AB360800002310B5044603604360836039
:1023A00081814366C281036143618361194600F103
:1023B0005C000822FFF7F0F8044BE4612362044B51
:1023C0006362044BA362044BE36210BDE93308006F
:1023D0000F3408004B3408006F34080070B56825CE
:1023E0004D430E4605F10C0100F052FC044640B18D
:1023F00000F10C00002184E84200A0602A46FFF7AB
:10240000CBF8204670BD024B1868FFF7BDBF00BF78
:10241000504F080038B5836B0446EBB90F4A0125CD
:10242000C2630322C0F8E42200F53B72C0F8E03238
:102430008563C0F8E82204211A464068FFF7AAFF26
:10244000A06809212A46FFF7A5FFE06812210222B1
:10245000BDE83840FFF79EBF38BD00BF89230800A4
:10246000F8B51D4B07461E68B36B13B93046FFF72E
:10247000D1FF06F53876B468736803E0B4F90C5000
:102480008DB16834013BF9D533680BB13668F2E79A
:1024900038460421FFF7A2FF30600028F6D10C2354
:1024A0003B60044615E04FF6FF73E3810123A381EF
:1024B00065662560A560656025616561A56104F1BB
:1024C0005C0029460822FFF767F8256365636564A9
:1024D000A5642046F8BD00BF504F08007047704704
:1024E00070477047024B0349186800F0D2BA00BF2A
:1024F0000800072081230800024B0349186800F0F8
:10250000C8BA00BF080007208523080093892DE979
:10251000F341144603F4005212B280460E4632B91B
:1025200043F40053A381636E43F40053636600F0E9
:1025300015FB012806D12EB1FF2E03D88DF80460BB
:1025400007460EE03246404601A904F15C0300F064
:10255000F3FF421C074604D1A38943F04003A38143
:1025600030E0002528E0A26801AB013A002AA26011
:1025700019DAA1698A420CDB5B5D2268137023685B
:1025800019780A2903D001330020236012E0404665
:1025900001E0595D4046224600F078FFB0F1FF337C
:1025A0005842584106E022685B5D1370236801338E
:1025B000236000E020B90135BD42D4D1304601E0AE
:1025C0004FF0FF30BDE8FC81F8B5084C07462068A5
:1025D0000E4618B1856B0DB9FFF71CFF2068394610
:1025E0003246BDE8F840FFF791BF00BF0800072062
:1025F000F8B5234D0E46044600F076FDAB685F68E3
:1026000027F0030707F6EF739E1B26F47F6626F07C
:102610000F06A6F58056B6F5805F04DA204600F076
:1026200064FD0020F8BD0021204600F0CDFEAB681F
:10263000DB199842F2D17142204600F0C5FE01300C
:1026400010D10021204600F0BFFEAB68C21A0F2A4D
:10265000E4DD0C4942F0010209685A60401A0A4957
:102660000860DBE7AB68BF1B47F001075F60064B04
:1026700020461A68961B1E6000F037FD0120F8BD49
:10268000B4040720BC08072064090720F8B50646F3
:102690000D46002900F0A58000F026FD55F804CC79
:1026A000504FA5F108032CF001029C18B96860682E
:1026B0008C4220F003000CF001011CD1821839B9C2
:1026C00055F8081C5B1A98685218D968C160886070
:1026D00042F00101596043498B60434B1B689A42A9
:1026E00004D3424B30461968FFF782FF3046BDE8FD
:1026F000F84000F0FABC606059B955F8085C08373A
:102700005B1B52199D68BD4205D0DF68EF60BD605C
:1027100002E0002100E0012125186D6815F0010F8D
:102720000FD1121849B9A068314DA84205D1EB600C
:10273000AB60D8609860012103E0E068A468E060C5
:10274000846042F0010058609A500029CED1B2F561
:10275000007F0CD2D2089010012404FA00F4214921
:10276000486801EBC20220434860916834E0540A93
:10277000042C02D89409383416E0142C01D85B34A8
:1027800012E0542C02D8140B6E340DE0B4F5AA7F7D
:1027900002D8D40B773407E040F254518C4202D86F
:1027A000940C7C3400E07E240E4D05EBC40081685F
:1027B00081420BD10122A41002FA04F46A68224378
:1027C0006A600A4608E08968814204D04C6824F0B7
:1027D0000304A242F7D3CA68DA6099609360CB60C1
:1027E00084E7F8BDB4040720C0080720600907206B
:1027F000BC04072093682DE9F74F80460C469146AC
:102800000BB9002043E18B8903F008031BB25BB1D5
:102810000B694BB1B4F80CA0D9F800600AF0020CB7
:102820000FFA8CF363B928E040462146FFF73AFCE3
:102830000028EFD029E1D6F800A07768083602E03A
:102840004FF0000A5746002FF5D0B7F5806F34BF20
:102850003B464FF480634046E1695246656AA847AB
:10286000002840F30E81D9F8083082443F1A181A24
:10287000C9F808000028E6D1C3E71AF0010A09D018
:102880009B4601931F469A469FE0D6F800A07568C4
:10289000083600E05546002DF7D0A289D4F808B0DC
:1028A00002F4007109B2002953D05D4541D312F4FE
:1028B000906F3CD06369032043432169276802205D
:1028C0007F1A019793FBF0F7019802F48062431C92
:1028D0005B1912B29F4238BF1F46404682B139464B
:1028E00000F0D6F9834600B913E0019A216900F09F
:1028F000D9FBA28922F4906242F08002A2810CE00E
:102900003A4600F0F3FB834638B940462169FFF7A9
:10291000BDFE0C23C8F80030B3E0019A67610BEBF1
:102920000203BF1AC4F810B02360AB46A7605D4530
:1029300000D2AB465A462068514600F0BCFBA26864
:10294000CBEB0202A260226802EB0B032360AB46D2
:1029500029E02068226990420ED95D450CD9514684
:102960005A4600F0A8FB226840465A44226021469D
:10297000FFF7E2FCB8B184E063699D4208D3676A5F
:102980004046E1695246B847B0F1000B0BDC78E0F5
:102990002A46514600F08FFBA268AB46521BA2604C
:1029A000226852192260D9F80820DA44CBEB0203DE
:1029B000CBEB0505C9F80830002B7FF46CAF20E79E
:1029C000002596E8800401950836BAF1000FF7D08B
:1029D000019D75B938460A21524600F055FB20B1D9
:1029E00000F1010CC7EB0C0B01E00AF1010B012512
:1029F000019520682269D34534BF5B465346904217
:102A0000A568D4F814E00FD97544AB420CDD394603
:102A10002A4600F050FB236840465B19236021469C
:102A2000FFF78AFCC0B12CE0734508DB656A4046BD
:102A3000E1693A467346A847051E0DDC21E01A46B7
:102A40003946009300F037FB009BA2681D46D21A5E
:102A5000A2602268D2182260BBEB050B06D140466B
:102A60002146FFF769FC60B9CDF804B0D9F8083009
:102A70007F19C5EB0A0A5D1BC9F80850002DA4D1C7
:102A8000BFE6A38943F04003A3814FF0FF30BDE8C8
:102A9000FE8F2DE9F041884600F53874002611E0DC
:102AA000A56867680BE0AB8943B1012B06D9B5F97E
:102AB0000E30013302D02846C04706436835013F37
:102AC000F1D52468002CEBD13046BDE8F0812DE92A
:102AD000F8438046894600F53874002612E0A56860
:102AE00067680CE0AB894BB1012B07D9B5F90E3003
:102AF000013303D040462946C84706436835013FA5
:102B0000F0D52468002CEAD13046BDE8F8830000F7
:102B100010B514460AB90C4810BD10460B4900F018
:102B2000AAFC0028F7D02046074900F0A4FC0028A2
:102B3000F1D02046064900F09EFC034B00280CBF54
:102B40001846002010BD00BF544F08009A4F0800DF
:102B5000574F08000048704738040720014B186A97
:102B6000704700BF38040720004870475C04072006
:102B700000207047004870477C0407200A4603493C
:102B8000034608681946FFF7C3BF00BF08000720C7
:102B9000004870477C040720F0B58B8991B003F0A2
:102BA00002031BB206460C4603B13FE0B1F90E101A
:102BB00000290DDAA389002703F080052DB243F424
:102BC0000063002D0CBF4FF480654025A38120E0F9
:102BD00001AA00F071FD0028ECDB029B03F47043B6
:102BE000B3F5005257425741B3F5004F0BD1A36ADA
:102BF0001D4A934207D1A3894FF4806543F4806353
:102C0000A381E56405E0A3894FF4806543F4006384
:102C1000A3813046294600F03BF870B9A38903F43C
:102C2000007212B2EAB943F00203A38104F1430334
:102C3000236023610123636113E00C4BF363A389D9
:102C4000206043F08003A381206165614FB130466D
:102C5000B4F90E1000F042FD18B1A38943F001034E
:102C6000A38111B0F0BD00BF4B34080089230800D8
:102C7000024B0146186800F00BB800BF080007209F
:102C8000024B01461868FFF701BD00BF080007208E
:102C90002DE9F04701F10B04162C064603D934F058
:102CA000070401D502E010248C4202D20C233360C9
:102CB000D3E1304600F018FAB4F5FC7F14D2A04BF3
:102CC000E20803EBC203DD689D4205D105F108036C
:102CD0006D6902329D4244D0EA68A9686B68CA6097
:102CE00023F00303916059E0620A01D1E2081BE07E
:102CF000042A02D8A209383216E0142A01D85B321D
:102D000012E0542A02D8220B6E320DE0B2F5AA7FEF
:102D100002D8E20B773207E040F254539A4202D8CD
:102D2000A20C7C3200E07E22854B03EBC203DD68FF
:102D300014E0696821F00301081B0F2801DD013A46
:102D40000EE0002809DBEB68AA68D3609A606B1874
:102D50005A6842F001025A608BE1ED689D42E8D169
:102D6000013277490D6901F10807BD4267D06B68F0
:102D700023F00303181B0F280CDD2B1940F0010270
:102D800044F001046C604B610B61DF609F605A602E
:102D900018506EE100284F610F6101DBEB18D7E797
:102DA000B3F5007F0FD2DB089810012707FA00F770
:102DB00048683843486001EBC3018B68E960AB6049
:102DC000DD608D603BE0580A042802D8980938304D
:102DD00016E0142801D85B3012E0542802D8180BF2
:102DE0006E300DE0B0F5AA7F02D8D80B773007E03F
:102DF00040F25451884202D8980C7C3000E07E208A
:102E0000DFF83CE10EEBC007B968B9420DD10123F0
:102E1000801003FA00F0DEF804300343CEF80430EB
:102E20000B4608E08968B94204D0486820F00300E6
:102E30008342F7D3CB68EB60A960CD609D60012130
:102E4000931001FA03F33E4949688B425DD80B4267
:102E500005D122F003025B0004320B42FBD038485C
:102E600000EBC20CE6461746DEF80C502CE0696811
:102E700021F00308C4EB08010F2913DD2B1944F0DE
:102E80000104EA686C6055F8080F5950C260906000
:102E90002B4A536113610832DA609A6041F00102F3
:102EA0005A600CE000290EDB05EB08035A6842F07B
:102EB00001025A60EB6855F8082FD3609A603046DB
:102EC00000F013F9D9E0ED687545D0D10137B907A5
:102ED00005F1080EC8D16146950704D1426822EA7F
:102EE0000302426005E0A1F108050968013AA94220
:102EF000F2D041685B008B4207D833B13A4601E01B
:102F000004325B000B42ABD1FAE70D4B9F687A6845
:102F100022F00309A1451A4604D3C4EB09030F2B81
:102F200000F39D80074B07EB090A1B6804EB0308BD
:102F3000D2F80834013307D108F110080CE000BFC3
:102F4000B40407206009072008F5805808F10F082D
:102F500028F47F6828F00F083046414600F034FA24
:102F6000421C05466BD0504502D2454B9F4266D16C
:102F7000444A5545536843445360414A07D12905A3
:102F800005D19368C84448F001025A604CE0D2F879
:102F90000824013203D13A4BC3F8085404E0CAEBC9
:102FA000050A384A5344536015F007031CBFC3F1A8
:102FB0000803ED18A84403F580534FEA0858A3EB23
:102FC00018584146304600F0FFF92E4A431C53681A
:102FD00004BF4FF00008284643445360401B284B71
:102FE000404440F001009F429D6068601CD0B9F1F0
:102FF0000F0F02D801236B6021E07B68A9F10C0957
:1030000029F0070903F0010349EA03037B60052265
:1030100007EB0903B9F10F0F5A609A6004D93046E3
:1030200007F10801FFF732FB164A5368D16A8B4259
:1030300088BFD362126B934284BF124A1363104B52
:103040009B685A6822F00302A242C4EB020301D338
:103050000F2B04DC304600F048F800250DE0084A4C
:1030600044F00101956843F001032C1969609460F4
:103070006360304600F039F808352846BDE8F0872F
:10308000B40407206009072010B5C9B203468218AE
:1030900003E0047801338C4203D093421846F8D100
:1030A000002010BD10B5002302E0CC5CC4540133F5
:1030B0009342FAD110BD814210B511D28C18A042B2
:1030C0000ED253428118E418CB1801E0A15C995448
:1030D00012F1FF32FAD210BDCC5CC454013300E0CF
:1030E00000239342F8D110BD704770472DE9F84F87
:1030F000814616460C4621B91146BDE8F84FFFF748
:10310000C7BDFFF7F1FF06F10B0754F8045C162F5B
:10311000A4F1080B25F0030803D937F0070701D500
:1031200002E01027B74204D20C23C9F80030002671
:1031300044E1B84580F21981A24A0BEB080391687B
:103140008B4206D05A6822F001029A185268D007C2
:1031500026D45A688B4222F0030000EB080A18D1EB
:1031600007F1100292451DDB964B0BEB0705C7EBF1
:103170000A0A9D604AF001036B6054F8043C48461B
:1031800003F001031F4344F8047CFFF7AEFF26461B
:1031900014E1BA4506DBDA689B68DA609360E5E023
:1031A00000200346EA0700F1918054F8085CC5EB63
:1031B0000B056A6822F00302002B51D002EB080ACB
:1031C0008B42824445D107F110039A4548DB2E46D5
:1031D00056F8082FEB68D3609A60A8F10402242AFD
:1031E00025D8132A1BD923681B2AAB606368EB60C0
:1031F00003D805F11003083412E0A368242A2B61D8
:10320000E3686B6103D005F11803103408E023690B
:10321000AB6163691834EB6105F1200300E03346CC
:1032200022681A6062685A60A2689A6003E03046B9
:103230002146FFF740FF634AEB19C7EB0A0A936088
:103240004AF001025A606B6803F001031F436F608C
:1032500087E0BA4504DBDA689B68DA60936003E0D4
:1032600002EB080ABA4531DB284650F8082FEB6814
:10327000D3609A60A8F10402242A23D8132A1AD909
:1032800023681B2AAB606368EB6003D805F110006C
:10329000083410E0A368242A2B61E3686B6103D033
:1032A00005F11800103406E0236905F12000AB6138
:1032B00063691834EB612368036063684360A36843
:1032C000836054E02146FFF7F6FE50E03146484661
:1032D000FFF7DEFC064600B943E054F8043CA0F1D9
:1032E000080223F001035B449A4205D150F8043CE4
:1032F00023F0030AC24439E0A8F10402242A29D8A1
:10330000132A1ED923681B2A03606368436004D80C
:1033100000F1080304F1080215E0A368242A836081
:10332000E368C36004D000F1100304F110020AE066
:10333000236904F1180203616369436100F1180312
:1033400001E003462246116819605168596092688D
:103350009A6002E02146FFF7AEFE48462146FFF79D
:1033600095F94846FFF7C1FE28E0C2465D46C7EB27
:103370000A030F2B6A6811D902F00102E9191743F9
:1033800043F001026F60CB184A605A68484642F029
:1033900001025A600831FFF779F90AE002F00102F0
:1033A0004AEA02026A6005EB0A035A6842F0010227
:1033B0005A604846FFF799FE05F108063046BDE819
:1033C000F88F00BFB404072038B5064C002305462B
:1033D00008462360FDF706FB431C02D1236803B1B6
:1033E0002B6038BDA009072010B50C46B1F90E10AE
:1033F00000F096F9002803DB236D1B18236510BD30
:10340000A38923F48053A38110BD002070472DE9C8
:10341000F0411D468B89074603F480731BB20C46AE
:1034200016462BB1B1F90E100022022300F066F906
:10343000A389B4F90E1023F48053A3813846324691
:103440002B46BDE8F04100F0CDB810B50C46B1F9FF
:103450000E1000F053F9431CA38903D123F48053C9
:10346000A38110BD43F48053A381206510BDB1F941
:103470000E1000F0C9B810F8012B11F8013B012A19
:1034800028BF9A42F7D0A2EB0300704770B50E46F2
:103490001446054618B1836B0BB9FEF7BBFFA36951
:1034A000A360A38903F008031BB243B1236933B1BE
:1034B000A389F6B203F4005212B24AB10FE02846D3
:1034C0002146FEF7EFFD0028F2D04FF0FF3628E04E
:1034D00043F40053A381636E23F4005363662369AE
:1034E0002068C01A6369984205DB28462146FEF72A
:1034F00023FF0028E9D1A3680130013BA3602368C2
:1035000003F8016B23606369984204D0A389DB0749
:1035100007D50A2E05D128462146FEF70DFF0028C3
:10352000D3D1304670BD0A460249034608681946A1
:10353000FFF7ACBF080007202DE9F0411D46104BF6
:1035400086B0044690460E461F6839B9FFF702FB65
:103550000095034603A92046324606E0FFF7FAFA33
:1035600000950346314620464246B847431C03D1E6
:1035700000232B608A23236006B0BDE8F08100BFE2
:10358000C408072030B51346044A05460C461068A7
:1035900029462246BDE83040FFF7CEBF080007208D
:1035A00049B1FF2A04D98A2303604FF0FF307047E6
:1035B0000A7001207047084670472DE9F34198468C
:1035C000074B05460F4616461C68FFF7C3FACDF8B1
:1035D00000800346394628463246A047BDE8FC81B4
:1035E000C408072038B5074C05460020206008466F
:1035F00011461A46FDF7F2FE431C02D1236803B1BF
:103600002B6038BDA009072038B5064C00230546BD
:1036100008462360FDF7FEF9431C02D1236803B17D
:103620002B6038BDA009072070B505460C4609B9C6
:10363000002638E018B1836B0BB9FEF7EBFEB4F946
:103640000C30002BF4D028462146FEF775FEE36AC5
:1036500006463BB12846E169984736EA200628BF6E
:103660004FF0FF36A38903F080031BB21BB128463D
:103670002169FFF70BF8216B41B104F14003994236
:1036800002D02846FFF702F800232363616C21B1C2
:103690002846FEF7FBFF00236364FEF71FFF0023AD
:1036A000A381FEF71CFF304670BD024B014618682F
:1036B000FFF7BABF0800072038B5074C00230546BE
:1036C000084611462360FDF7A9F9431C02D123687F
:1036D00003B12B6038BD00BFA009072038B5064CE8
:1036E0000023054608462360FDF79EF9431C02D1DE
:1036F000236803B12B6038BDA009072038B5074CFB
:10370000054600202060084611461A46FDF790F94C
:10371000431C02D1236803B12B6038BDA0090720E8
:1037200038B5074C054600202060084611461A4669
:10373000FDF730FE431C02D1236803B12B6038BD76
:10374000A00907204BB942B9002908BF002802D0C0
:103750004FF0FF31084600F03BB882B0EC462DE94F
:10376000005000F01DF8DDF804E002B00CBC70471A
:103770002DE9F0411646984604460D4600F02AF819
:1037800006FB01FCA6FB002300FB08C7FB18A21ADE
:1037900065EB0303069CC4E90023BDE8F08100BF8C
:1037A0002DE9F041904606460F461D4600F076F999
:1037B00000FB05F3A0FB084508FB0138069B4544C8
:1037C000341B67EB0505C3E90045BDE8F08100BF88
:1037D000704700BF2DE9F00F002400291D46C0F2FC
:1037E0000681002DC0F2FE8080460F4694461E469C
:1037F000DBBB8A4248D9B2FA82F343B1C3F1200558
:1038000020FA05F501FA03F19A4098402943150C76
:10381000B1FBF5F61FFA82FC05FB16110CFB06F74F
:10382000030C43EA01439F4208D9711E9B1880F0A4
:1038300028819F4240F22581023E9B18DB1BB3FB8F
:10384000F5F105FB11330CFB01FC80B240EA0340AB
:10385000844506D94B1E821802D20239944500D8FD
:10386000194641EA0641002503E08B4244D9002570
:1038700029460A462B4614B1524263EB43031046D5
:103880001946BDE8F00F704712B90123B3FBF2F2FD
:10389000B2FA82F6002E40F0B080891A130C1FFA9B
:1038A00082FC0125B1FBF3F703FB17110CFB07F8B2
:1038B0004FEA104949EA0146B04506D9791EB618C3
:1038C00002D2B04500F2E7800F46C8EB0606B6FB11
:1038D000F3F103FB11630CFB01FC80B240EA0343EC
:1038E0009C4506D94E1E9B1802D202399C4500D831
:1038F000314641EA0741BCE7B3FA83F5002D00F0F9
:10390000B980C5F1200103FA05F622FA01F327FA7E
:1039100001F207FA05F720FA01F11E434FEA1648B3
:10392000B2FBF8F91FFA86FA08FB19220AFB09FB19
:103930000F433B0C43EA024293450CFA05FC0BD9BA
:10394000921909F1FF3380F0A280934584BFA9F159
:103950000209921940F29B80CBEB0202B2FBF8F114
:1039600008FB11220AFB01FABFB247EA02439A455B
:1039700008D94A1E9B1980F086809A4540F28380C0
:1039800002399B1941EA09410F0C1FFA8CF808FB18
:1039900007F68AB24FEA1C4C08FB02F80CFB0262E5
:1039A0000CFB07FC02EB1842964288BF0CF5803CEA
:1039B000CAEB03030CEB124C634510D300FA05F578
:1039C0001FFA88F814BF0023012308EB0242954236
:1039D0002CBF002503F00105002D3FF44AAF01394B
:1039E000002546E7E443524263EB4303FCE64042D2
:1039F00061EB41014FF0FF34F3E6B240C6F120091C
:103A000021FA09F720FA09F901FA06F1130CB7FBBC
:103A1000F3F81FFA82FC03FB18770CFB08F549EA60
:103A200001094FEA194141EA0747B040BD4209D9AF
:103A3000BF1808F1FF312CD2BD4284BFA8F10208A3
:103A4000BF1826D97F1BB7FBF3F503FB15710CFBE1
:103A500005F61FFA89F949EA01418E4206D96F1E1F
:103A6000891812D28E4210D9023D8918891B45EA65
:103A7000084517E70121BB4228BF82427FF6F9AE15
:103A8000F5E60E46DAE611467CE73D46EEE7994656
:103A900062E78846D6E7023FB61816E72DE9F0033D
:103AA000144605460E46DBBB8A4246D9B2FA82F37B
:103AB00043B1C3F1200220FA02F201FA03F69C405E
:103AC0009D401643230CB6FBF3F1A7B203FB11662E
:103AD00007FB01F2280C40EA0646B24208D9481E0C
:103AE000361980F00F81B24240F20C81023936194A
:103AF000B61AB6FBF3F203FB126307FB02F7ADB293
:103B000045EA03439F4207D9501E1B1980F0F880F5
:103B1000023A9F4240F2F48042EA0140002146E02E
:103B20008B4242D8B3FA83F4002C43D18B4228BF96
:103B300082423AD82146012039E012B90123B3FB71
:103B4000F2F4B4FA84F2002A40F09B800A1B230CA2
:103B5000A7B20121B2FBF3F603FB162207FB06F026
:103B60004FEA154C4CEA0242904207D9121906F16D
:103B7000FF3C02D2904200F2DC806646121AB2FB91
:103B8000F3F003FB102307FB00F7ADB245EA034354
:103B90009F4207D9421E1B1980F0B68002389F420F
:103BA00040F2B28040EA064001E000210846BDE84C
:103BB000F0037047C4F1200722FA07FC03FA04F36C
:103BC00021FA07F620FA07F501FA04F14CEA03039B
:103BD0001F0CB6FBF7F81FFA83F907FB186609FB01
:103BE00008FC29430D0C45EA0646B44502FA04F2E6
:103BF00005D9F61808F1FF35C0F08F80A846CCEB48
:103C00000606B6FBF7FC07FB1C6609FB0CF989B23C
:103C100041EA0645A94504D9ED180CF1FF3175D3E9
:103C20008C464CEA084C97B24FEA1C4607FB06F15B
:103C3000120C1FFA8CF307FB03F702FB031302FBC2
:103C400006F203EB1743994288BF02F58032C9EBB5
:103C5000050502EB134295420FD300FA04F1BFB2FF
:103C600014BF0022012207EB034399422CBF00211D
:103C700002F001016046002999D00CF1FF300021CB
:103C800095E79440C2F1200321FA03F620FA03F9E4
:103C900001FA02F1230CB6FBF3FCA7B203FB1C668E
:103CA00007FB0CF849EA01094FEA194141EA0646C7
:103CB000B04500FA02F509D936190CF1FF3234D2B9
:103CC000B04584BFACF1020C36192ED9C8EB0606FC
:103CD000B6FBF3F003FB106207FB00F81FFA89F94B
:103CE00049EA0242904506D9411E12191FD2904559
:103CF0001DD902381219C8EB020240EA0C4129E72B
:103D0000024609E70146F3E610464BE7A94584BFA2
:103D1000ACF1020CED1884D882E7B44584BFA8F159
:103D20000208F6183FF66BAF68E79446CEE7084600
:103D3000E1E7023E121921E703685A004CBF43F045
:103D4000004323F00043C018704700BF2DE9F04F37
:103D5000064683B0914611B3013901918846002788
:103D600007EB080404EBD474641006EBC40B58464C
:103D7000FFF7E2FF019B651CA342824606EBC500EC
:103D800015D0FFF7D9FF0138CA4504D9BC420BD082
:103D900004F1FF38E4E7484502D22F46E0E78B46BE
:103DA000584603B0BDE8F08F4FF0000BF8E7CA4566
:103DB000ECD8F5E7012807D0022807D0044B0028EB
:103DC0000CBF1846002070470248704702487047F1
:103DD000554408004D44080045440800036810B5E8
:103DE0000446D80706D4990704F1480009D500F025
:103DF000B5FC23685A0709D518070ED5D90613D57F
:103E000010BD00F0A3FC23685A07F5D404F1D000DC
:103E100000F0ACFC23681807F0D404F5D87000F06B
:103E2000ADFC2368D906EBD404F50C70BDE8104056
:103E300000F0E8BC30B5254B83B004468D1E002B46
:103E40003CD0284601A9AFF300800346002B21D0C7
:103E50002A460199FFF77AFF0546F0B1FFF76CFF9C
:103E60006B68A064012B11D0281D002B22DBFFF70B
:103E700063FF0023E06423650368002B10DBFFF77A
:103E80005BFF00232061184603B030BD002323618F
:103E90000523F8E723610923F5E720610923F2E709
:103EA000C3F30360FFF786FF206100280CBF0923DE
:103EB0000023E8E70123E0642365DDE7044B054ABE
:103EC0001846D31ADB100193C2E700BF00000000C0
:103ED000F84F0800D0500800036803B11B181846BB
:103EE000704700BF09207047704700BF2DE9F047B9
:103EF000ADF5916D03AD0C1D064617460FCC0FC5F1
:103F00000FCC0FC50FCC0FC594E80F0002ACD6F84C
:103F10000C80D6F8189085E80F0000233046216CFD
:103F200023609F4214BF0A270927FFF783FF054636
:103F300095B1A36B3246636401208DE8100247F00F
:103F400010013346C047002818BF0925284622B073
:103F50000DF5806DBDE8F087236C21464FF410729B
:103F6000736192A8FFF79EF8314692AA33693846EA
:103F70009847A09B82460094012063643946CDF89F
:103F8000049032463346C04790B9204692A94FF478
:103F90001072FFF787F8BAF1080F06D13046216C8E
:103FA000FFF748FF09270546C2E7BAF1070F01D01E
:103FB0000925CBE72846216CFFF796FF03A800F000
:103FC000B9FB00BF70B504460D462046296CFFF7CB
:103FD00031FF064650B92A6C0120626123692146EF
:103FE0002A4698470828F0D0072801D000F048FE5C
:103FF0003046296CFFF778FF281D00F09BFB00BFBF
:10400000406C7047F0B5CB6BADF5117D0B6401AC26
:104010000D1D0F4606460FCD0FC40FCD0FC40FCD9B
:104020000FC495E80F0084E80F004FF0FF330093B2
:1040300030461099FFF7FEFE58B9336931466A469B
:10404000984708280446F3D06846FFF7C7FE062CB9
:1040500003D009200DF5117DF0BD30463946FFF73C
:10406000B1FF00BF30B4DD6B0446C1608261194608
:1040700000221D6430BCFFF739BF00BF70B5436933
:10408000C66804460D460B6426B10122FFF72EFFD9
:1040900000F0F6FD0369214602202A4698470728CA
:1040A00003D0082808D000F0EBFD3046296CFFF75C
:1040B0001BFF281D00F03EFB20462946FFF782FF2C
:1040C000C26810B42AB1CC6B00220C6410BCFFF79C
:1040D0000DBF10BCFFF796BF704700BF08B58368DF
:1040E00001460BB10120984708BD00BF79B90F2ADE
:1040F00098BF002B0CBF0023012301BF00EB8202FD
:1041000052681846009B0CBF1A60022070470429B1
:104110008CBF02200120704700B585B00A4603AB72
:10412000002100930B46FFF7E1FF039805B000BDA7
:1041300079B90F2A98BF002B02BF009900EB8202C9
:1041400009680CBF0023012306BF184651600220F6
:10415000704704298CBF02200120704710B584B03D
:1041600004AB0C4643F8042D0021009322460B4675
:10417000FFF7DEFF04B010BD2DE9F04FCE6C0C460A
:1041800056F8041B8BB01D46174600F00308079134
:104190000896E3B909028DF82530032307918DF8BD
:1041A0002430236DB8F1020F08BFA66B13F0010392
:1041B0001BD000220192022D40F3B380FFF792FE44
:1041C000002800F0B58009200BB0BDE8F08F022B6D
:1041D000E7DC0B0CDAB209048DF8253002230791D5
:1041E0008DF8243006EB8206DBE700F0080004F1CE
:1041F0005802C0B2019302920390AA463568002D7E
:1042000000F0FB80BAF1020F00F087803588B6F825
:1042100002900436A36C0F2129F0010B38469B4411
:10422000FFF77AFF83451AD825F001039B4409F074
:10423000010905F00105584545EA49052CBF002054
:104240000120012D14D02ED2B8F1000F0CBF002098
:1042500000F00100002840F0BD800436CEE709F0F0
:10426000010905F0010545EA49050020012DEAD1C3
:10427000B8F1000F71D1A0B1736835689A1CA2D053
:10428000029A0133069200F09B80301DFFF724FE56
:10429000EA0F014606AB2046AFF30080002840F04D
:1042A000BF800836AAE7022D8DD1336823F0004580
:1042B000B8F1000F6AD150B3039A002A18BF002D3D
:1042C00025D1002D00F09C8006F1040BC146049618
:1042D000CDF81480029ED84603E0AB45D94600F0E5
:1042E0008E8040460696FFF7F7FD0022014606AB9A
:1042F0002046AFF3008009F1010B08F10408002803
:10430000EBD04D45049EDDF8148079D03368002B46
:1043100054DB013506EB850670E7D6F804900836C5
:1043200078E7384607A900F001FB00287FF44BAF7F
:10433000019B0820002B3FF447AF0F213846FFF7C1
:10434000EBFE0E2102463846FFF708FF38460F21E4
:104350003B4AFFF703FF072036E70D213846256A61
:10436000FFF7DAFE85429CD1A36A9E4299D130467E
:10437000FFF7E2FC0F2102463846FFF7EFFE384612
:1043800000212246FFF7EAFE07201DE70D213846EF
:10439000D4F82090FFF7C0FE8145B7D1A36A9E42B2
:1043A000B4D10022331DE2620422A562226363635A
:1043B0003368002B2EDB01230193AAE70436A8E71C
:1043C00038460D21FFF7A8FE2062069B6362A662B5
:1043D0000620F9E63046FFF7AFFC04360546A66333
:1043E0002046AFF3008000283FF4EDAE38460F21A1
:1043F0002A46FFF7B3FE0720E6E65546DBE6049EB5
:1044000038460D21FFF788FE069B20626362A66294
:104410000620D9E605F10100A94606EB8000A7E7D2
:1044200003460D2138460093FFF776FE009B20627D
:10443000022BCAD1069A234643F82C2F6362C6E7A3
:10444000000000000223FFF797BE00BF0123FFF723
:1044500093BE00BF0023FFF78FBE00BFF0B5D36B44
:10446000ADF5277D136417AC151D07460E460FCD1D
:104470000FC40FCD0FC40FCD0FC495E80F0084E813
:104480000F004FF0FF33169326996846FFF7D2FCD2
:104490006A460C21B8B916A8FFF760FE314616A887
:1044A000B847694616AA70B90820049B984709289E
:1044B00018BF05280446E7D116A8FFF78FFC204651
:1044C0000DF5277DF0BD0924F6E700BF2DE9F04189
:1044D0000446E8B0042907D8DFE801F02C4644037D
:1044E0000A00032B00F0C380022068B0BDE8F08111
:1044F000102A98BF002BF7D12368D90600F1DB8082
:1045000002A8019200F088F9A06B019A002301250E
:1045100005FA03F111421EBF50F8041B02AE46F823
:1045200023100133042BF3D1A06302A800F06AF931
:104530000020DAE7002BD7D1A56B96B2012000FA54
:1045400003F131421EBF55F8047B04EB83014F6039
:104550000133102BF3D112F4005008BFA563C4D06F
:104560000020C2E70120C0E703F0FB010129BBD115
:10457000150C96B27219012B14BF20211021914203
:10458000B2D3B3F1010CDCF1000757EB0C070F2D90
:1045900094BF002101213942A6D1B04621B9102A89
:1045A00040F2AB80A2F11008B8F1000F18BF052B44
:1045B0009AD10F2D0FD82268D0070CD522F0010117
:1045C000052B2160204600F0AE8022F0030240F867
:1045D000482B00F0BFF8B8F1000F02D0236859074C
:1045E0007BD4002F40F098800F2D6ED9B8F1000FCA
:1045F00040F08C80A06B002E014610DD46AA4FEAE9
:10460000460C02EBC5060CF1FF3133469A1B1258DB
:10461000013943F8042B4A1CF8D100EB8C01B8F1A6
:10462000000F16D068AB102D2CBF2E46102603EBC2
:10463000C6064FEA480CA6F502760CF1FF33081FB8
:1046400050F8042F013B46F8042B5A1CF8D101EB1B
:104650008C01002F53D10F2DA1633AD9B8F1000F6F
:104660003FF47EAF06A800F081F800203DE7150C6E
:1046700096B27319102B3FF637AF2368180734D45E
:1046800026A800F09DF8A06B26AA760002EBC505CF
:104690000346721E4EB12B46591B0958013A43F886
:1046A000041B511CF8D100EB860326A8A36300F07D
:1046B00065F8002019E723F01003236004F50C705F
:1046C000019200F0A9F8019A1AE746A800F04AF80A
:1046D0008CE746A800F042F8C0E7204623F0040328
:1046E00040F8D03B00F046F87BE723F00803236056
:1046F00004F5D87000F064F8C2E7884659E7043141
:1047000046A8A16300F022F80020EEE606A800F01B
:1047100031F8C5F110066DE746A800F01BF8B8F1B6
:10472000000FF6D166E741F0020140F8481B00F0A7
:1047300019F850E700F1340191E838009C46A6468C
:104740004CF8045D90E8FF0FE54600BD90EC210BAE
:10475000704700BF80EC210B704700BF90EC200B2E
:10476000704700BF80EC200B704700BFD0EC200BDF
:10477000704700BFC0EC200B704700BFF0EC020197
:10478000F0EC0211F0EC0221F0EC0231F0EC02410D
:10479000F0EC0251F0EC0261F0EC0271F0EC0281FD
:1047A000F0EC0291F0EC02A1F0EC02B1F0EC02C1ED
:1047B000F0EC02D1F0EC02E1F0EC02F1704700BF46
:1047C000E0EC0201E0EC0211E0EC0221E0EC02314D
:1047D000E0EC0241E0EC0251E0EC0261E0EC02713D
:1047E000E0EC0281E0EC0291E0EC02A1E0EC02B12D
:1047F000E0EC02C1E0EC02D1E0EC02E1E0EC02F11D
:10480000704700BFB0FC0181B0FC0191B0FC01A178
:10481000B0FC01B1704700BFA0FC0181A0FC019178
:10482000A0FC01A1A0FC01B1704700BFEC4600B59F
:104830002DE900502DE9FF1F4FF000032DE90C007A
:1048400001A9FFF7DFFBDDF840E012B0704700BFC1
:10485000EC4600B52DE900502DE9FF1F4FF0000395
:104860002DE90C0001A9FFF709FCDDF840E012B0CA
:10487000704700BFEC4600B52DE900502DE9FF1F41
:104880004FF000032DE90C0001A9FFF719FCDDF83A
:1048900040E012B0704700BFEC4600B52DE9005073
:1048A0002DE9FF1F4FF000032DE90C0001ABFFF7CE
:1048B000D9FBDDF840E012B0704700BFEC4600B510
:1048C0002DE900502DE9FF1F4FF000032DE90C00EA
:1048D00001AAFFF7C3FDDDF840E012B0704700BF4A
:1048E000027A03461AB9427A42B9B0207047013AB7
:1048F00000681A7202021A60000E70474168013A9D
:10490000427251F8040B032259601A72F2E700BF99
:1049100000B585B0002103AB00930C220B46FFF7D6
:10492000E5FB039805B000BDFFF7F2BF2DE9F043AA
:10493000064685B00D464FF000082846FFF7D0FF29
:10494000B028044600F0BE8020F07F02D1B201B34F
:1049500000F0F002802A79D0902A3AD0A02A46D0DE
:10496000B02A5AD0C02A00F0898000F0F803D02B7A
:104970000BD100F00704621C3046012142F40022F2
:104980000523FFF7A3FD0028D7D0092005B0BDE817
:10499000F0834FEA800903AF04F040040B465FFA4E
:1049A00089F9009730460D22E4B2FFF79FFB09F129
:1049B0000409039B4CB94B440393002100973046F4
:1049C0000D220B46FFF7B4FBB7E7C9EB03030393D4
:1049D000F3E700F00D030D2BD7D003AF002100F05B
:1049E0000F020B4600973046FFF780FBE5E7C24316
:1049F0004FF47F6302F0070243FA02F200F008046A
:104A0000E4B21A400CB142F48042002130460B4619
:104A1000FFF75CFD0028B8D18FE7B12876D0B22827
:104A200000F08780B32800F0B68000F0FC03B42BC0
:104A30005ED000F0070201320121304642F400222C
:104A40000B46FFF743FD00289FD176E72846FFF786
:104A500047FF24020443B4F5004F96D022050021FD
:104A60003046120C0B462401FFF730FD00288CD194
:104A700014F4004F18BF4FF001085EE7C62800F09D
:104A80009D80C72800F0A48000F0F803C02B00F040
:104A9000B280C82800F0BD80C9287FF476AF2846D0
:104AA000FFF71EFF00F00F03013300F0F00243EAAE
:104AB0000232304601210523FFF708FD00287FF46C
:104AC00064AF3AE70020B8F1000F7FF45FAF03ACAA
:104AD00041460E22434600943046FFF707FB009400
:104AE000304641460F224346FFF722FB40464DE742
:104AF00000F0030201320221304642F480220B46CC
:104B0000FFF7E4FC00287FF440AF16E72846FFF7E4
:104B1000E7FE024600283FF438AF10F0F0017FF4C2
:104B200034AF30460B46FFF7D1FC00287FF42DAFA1
:104B300003E7002103AF0D220B4600973046FFF735
:104B4000D5FA2846FFF7CCFE20F07F03022413F0AD
:104B5000FF0F0FD000F07F0000FA04F2039B2846FD
:104B60009B180393FFF7BCFE20F07F03073413F07C
:104B7000FF0FEFD100F07F0000FA04F4039B002147
:104B800003F501731C19009730460D220B46039460
:104B9000FFF7CEFAD1E62846FFF7A2FE00F00F039A
:104BA000013300F0F002012143EA023230460B46A5
:104BB000FFF78CFC00287FF4E8AEBEE62846FFF73E
:104BC0008FFE00F00F03013300F0F0020321EBE74A
:104BD0002846FFF785FE024600283FF4D6AE10F0C7
:104BE000F0037FF4D2AE30460421FFF76FFC0028BB
:104BF0007FF4CBAEA1E600F00F0201320321304674
:104C000042F420220B46FFF761FC00287FF4BDAE82
:104C100093E62846FFF764FE00F0F00200F00F0371
:104C20001032013343E700BF10B5C36C84B00322D8
:104C30005C688DF80C20DA7924020833084601A953
:104C4000019402938DF80D20FFF770FE04B010BDA3
:104C500008B5FFF769FE806C08BD00BF08B5FFF717
:104C600063FEC36CDA7903EB8200083008BD00BF35
:104C700008B500F005F800BF08B500F001F800BF66
:104C800008B5062000F087F80120FBF7D5FE0000EC
:104C900038B5D0F8DC5204460DB1002038BD802173
:104CA000FDF7F6FFC4F8DC0240B12B462946D4F8E4
:104CB000DC22D1500433802BF9D1EEE74FF0FF30E6
:104CC00038BD1F2970B504460D46164602D9162375
:104CD00003600DE0D0F8DC3233B1D4F8DC3253F8A5
:104CE000250043F8256070BDFFF7D2FF0028F4D0FF
:104CF0004FF0FF3070BD1F2938B505460C4604D96A
:104D0000162303604FF0FF3038BDD0F8DC2212B11B
:104D100052F821304BB9284600F06EF82246014681
:104D20002846BDE8384000F055B8012B0AD0591C80
:104D300003D116230360012038BD002542F824501A
:104D400020469847002038BD1F2938B505460C4637
:104D500002D94FF0FF3038BDD0F8DC322BB1D5F896
:104D6000DC2252F824302BB90FE0FFF791FF002826
:104D7000F5D0EEE7581C0AD0012B0AD000252046BA
:104D800042F824509847284638BD012038BD0220FB
:104D900038BD032038BD024B01461868FFF7ABBF92
:104DA000080007200A460349034608681946FFF72A
:104DB00088BF00BF08000720014B1868FFF768BFD5
:104DC00008000720024B01461868FFF7BDBF00BF6F
:104DD0000800072038B5074C002305460846114651
:104DE0002360FBF735FE431C02D1236803B12B601F
:104DF00038BD00BFA0090720FBF72CBE3220000001
:104E00002D2D2047657474696E6720537461727428
:104E10006564204578616D706C65202D2D0D0A2D1F
:104E20002D2041726475696E6F204475652F58207E
:104E30002D2D0D0A2D2D20436F6D70696C65643A20
:104E40002041707220203920323031332031323A03
:104E500030323A3530202D2D0D000000436F6E6644
:104E600069677572652073797374656D2074696301
:104E70006B20746F2067657420316D7320746963D3
:104E80006B20706572696F642E0D0000436F6E6653
:104E900069677572652054432E0D0000436F6E667E
:104EA000696775726520627574746F6E73207769B7
:104EB0007468206465626F756E63696E672E0D009D
:104EC00050726573732055535242503120746F20D5
:104ED00053746172742F53746F702074686520620C
:104EE0006C7565204C454420443220626C696E6BC1
:104EF000696E672E0D000000507265737320555364
:104F00005242503220746F2053746172742F537464
:104F10006F702074686520677265656E204C45442B
:104F200020443320626C696E6B696E672E0D000041
:104F30003120000045786974696E6720776974686C
:104F4000207374617475732025642E0A00000000BC
:104F50001000072043000A002020202020202020CD
:104F600020202020202020203030303030303030C1
:104F70003030303030303030303132333435363715
:104F800038394142434445460030313233343536B6
:104F900037383961626364656600504F5349580081
:104FA0002E000000A1B20181B0B0AE0100000000EF
:104FB00008B10181B0B000840000000008B1018197
:104FC000B0B000840000000008B10181B0B00084DE
:104FD00000000000F8B500BFF8BC08BC9E46704752
:104FE000012208006D010800F8B500BFF8BC08BC3C
:084FF0009E46704745010800D0
:104FF800DCE7FF7FB0B0A7809CEAFF7FB0B0A58058
:1050080030EDFF7F01000000CCEDFF7FB0B0A8803D
:105018001CEEFF7FB0A90280B8EEFF7F0100000000
:10502800C4EEFF7F78FFFF7F94EFFF7FB0B0AA80C8
:10503800C8EFFF7F01000000C4EFFF7FAB10B28014
:105048001CF0FF7F010000002CF0FF7FB0B0AA80A9
:1050580068F0FF7F010000007CF0FF7F4CFFFF7FBE
:1050680084F0FF7F0100000008F1FF7FB0AF0A80E5
:10507800CCF3FF7F01000000DCF3FF7FAB26B2809A
:1050880044F4FF7FAC3F2780A4F6FF7F01000000B7
:1050980078F8FF7F0084048088F8FF7F0100000013
:1050A80084F8FF7FB0AD048078FBFF7FB0A8038051
:1050B80098FBFF7F00FFFF7F9CFBFF7F04FFFF7FC4
:0850C800A8FBFF7F01000000BE
:1050D0000101000000093D00100007200000000051
:1050E00000000000FC02072064030720CC03072017
:1050F00000000000000000000000000000000000B0
:10510000000000000000000000000000000000009F
:1051100000000000544F08000000000000000000E4
:10512000000000000000000000000000000000007F
:10513000000000000000000000000000000000006F
:10514000000000000000000000000000000000005F
:10515000000000000000000000000000000000004F
:10516000000000000000000000000000000000003F
:10517000000000000000000000000000000000002F
:10518000000000000000000001000000000000001E
:105190000E33CDAB34126DE6ECDE05000B000000E3
:1051A00000000000000000000000000000000000FF
:1051B00000000000000000000000000000000000EF
:1051C00000000000000000000000000000000000DF
:1051D00000000000000000000000000000000000CF
:105500000000000000000000415343494900000032
:10551000000000000000000000000000000000008B
:10552000000000000000000001000000415343495A
:105530004900000000000000000000000000000022
:10554000000000000000000000000000A04F080064
:10555000574F0800574F0800574F0800574F080093
:10556000574F0800574F0800574F0800574F080083
:10557000574F0800FFFFFFFFFFFFFFFFFFFFFFFF89
:10558000FFFF00000000000000000000B40407203E
:10559000B4040720BC040720BC040720C40407206F
:1055A000C4040720CC040720CC040720D40407201F
:1055B000D4040720DC040720DC040720E4040720CF
:1055C000E4040720EC040720EC040720F40407207F
:1055D000F4040720FC040720FC040720040507202E
:1055E000040507200C0507200C05072014050720DB
:1055F000140507201C0507201C050720240507208B
:10560000240507202C0507202C050720340507203A
:10561000340507203C0507203C05072044050720EA
:10562000440507204C0507204C050720540507209A
:10563000540507205C0507205C050720640507204A
:10564000640507206C0507206C05072074050720FA
:10565000740507207C0507207C05072084050720AA
:10566000840507208C0507208C050720940507205A
:10567000940507209C0507209C050720A40507200A
:10568000A4050720AC050720AC050720B4050720BA
:10569000B4050720BC050720BC050720C40507206A
:1056A000C4050720CC050720CC050720D40507201A
:1056B000D4050720DC050720DC050720E4050720CA
:1056C000E4050720EC050720EC050720F40507207A
:1056D000F4050720FC050720FC0507200406072029
:1056E000040607200C0607200C06072014060720D6
:1056F000140607201C0607201C0607202406072086
:10570000240607202C0607202C0607203406072035
:10571000340607203C0607203C06072044060720E5
:10572000440607204C0607204C0607205406072095
:10573000540607205C0607205C0607206406072045
:10574000640607206C0607206C06072074060720F5
:10575000740607207C0607207C06072084060720A5
:10576000840607208C0607208C0607209406072055
:10577000940607209C0607209C060720A406072005
:10578000A4060720AC060720AC060720B4060720B5
:10579000B4060720BC060720BC060720C406072065
:1057A000C4060720CC060720CC060720D406072015
:1057B000D4060720DC060720DC060720E4060720C5
:1057C000E4060720EC060720EC060720F406072075
:1057D000F4060720FC060720FC0607200407072024
:1057E000040707200C0707200C07072014070720D1
:1057F000140707201C0707201C0707202407072081
:10580000240707202C0707202C0707203407072030
:10581000340707203C0707203C07072044070720E0
:10582000440707204C0707204C0707205407072090
:10583000540707205C0707205C0707206407072040
:10584000640707206C0707206C07072074070720F0
:10585000740707207C0707207C07072084070720A0
:10586000840707208C0707208C0707209407072050
:10587000940707209C0707209C070720A407072000
:10588000A4070720AC070720AC070720B4070720B0
:10589000B4070720BC070720BC070720C407072060
:1058A000C4070720CC070720CC070720D407072010
:1058B000D4070720DC070720DC070720E4070720C0
:1058C000E4070720EC070720EC070720F407072070
:1058D000F4070720FC070720FC070720040807201F
:1058E000040807200C0807200C08072014080720CC
:1058F000140807201C0807201C080720240807207C
:10590000240807202C0807202C080720340807202B
:10591000340807203C0807203C08072044080720DB
:10592000440807204C0807204C080720540807208B
:10593000540807205C0807205C080720640807203B
:10594000640807206C0807206C08072074080720EB
:10595000740807207C0807207C080720840807209B
:10596000840807208C0807208C080720940807204B
:10597000940807209C0807209C080720A4080720FB
:10598000A4080720AC080720AC080720FFFFFFFF92
:0859900000000200A13508002F
:0400000380000DD597
:00000001FF
