:0200000280007C
:10000000B02F07203D110800A5010800A501080038
:10001000A5010800A5010800A501080000000000D6
:10002000000000000000000000000000A90108001E
:10003000A501080000000000B5010800C10108008A
:10004000A5010800A5010800A5010800A5010800F8
:10005000A5010800A5010800A5010800A5010800E8
:10006000C9180800A501080000000000B10F080031
:10007000D90F080001100800291008000000000036
:1000800000000000DD180800F1180800A5010800B4
:1000900005190800A5010800A5010800A501080030
:1000A000A501080000000000A5010800A501080046
:1000B000A5010800A5010800A5010800A501080088
:1000C000A5010800A5010800A5010800A501080078
:1000D000A5010800A5010800A5010800A501080068
:1000E00005150800A5010800A5010800A5010800E4
:1000F000A501080008B50548054B1B1A062B00D8BA
:1001000008BD044B002BFBD09847F9E7EC2F080003
:10011000EF2F08000000000008B50748074B1B1A26
:100120009B1003EBD373591000D108BD044A002A79
:10013000FBD09047F9E700BFEC2F0800EC2F080038
:100140000000000010B5064C237843B9FFF7D2FF3A
:10015000044B13B10448AFF300800123237010BD9A
:10016000A008072000000000EC2F080008B5084B8D
:100170001BB108480849AFF300800848036813B171
:10018000074B03B19847BDE80840FFF7C5BF00BF64
:1001900000000000EC2F0800A4080720EC2F080046
:1001A00000000000FEE7000008B5014B984708BDBD
:1001B000E701080008B5014B984708BDE7010800B2
:1001C00008B5044B984718B9034B9847034B984719
:1001D00008BD00BFE301080029030800E914080076
:1001E000704700207047FEE72DE9F0470024DFF854
:1001F0003890DFF8388007460E4625463B191979B6
:100200000A223046C8472E2182463046C047013474
:100210005044032C0544F1D13046F9790A22024BAF
:1002200098472818BDE8F0870103080095020800E8
:10023000044B054A1A6000221A715A719A71DA71D8
:10024000704700BFBC08072098220800F8B5064692
:100250000C468F18002506E0336830461B6814F8FA
:10026000011B98472D18BC42F6D12846F8BD000066
:1002700038B505460C46084641B1054B98472B68F2
:1002800002465B6828462146984738BD38BD00BF06
:10029000C91F080008B503681B68984708BD00001F
:1002A00070B500238AB08DF82430012A98BF0A2245
:1002B0000DF12303B1FBF2F505FB1211CCB2092CB1
:1002C0001E4601D8303400E03734E4B203F8014967
:1002D0002946002DEED13146014B98470AB070BD3A
:1002E0007102080010B50C4622B90368C9B21B6838
:1002F000984710BDD2B2014B984710BDA10208002B
:1003000008B5014B984708BDE5020800014B18608D
:10031000704700BF3C000720024B4FF0FF321A60CD
:10032000704700BF3C000720054A08B51368591CF8
:1003300004D0013B13600BB9024B984708BD00BFC6
:100340003C0007200100072010B500214022044B8B
:1003500004469847002323646364204610BD00BF11
:10036000951F0800026C10B5531C446C03F03F034A
:10037000A3421CBF8154036410BD0000044B1A68E3
:100380000AB9044A1A601A681018186010467047B3
:10039000C4080720B02F0720012070470369186C9C
:1003A0005B6CC01A00F03F00704703695A6C196C0F
:1003B000914214BF985C4FF0FF30704703695A6C4C
:1003C000196C914205D0985C013202F03F025A64E8
:1003D00070474FF0FF307047426953699B07FCD567
:1003E000704743695A699207FCD5D961012070476B
:1003F00030B5002545604FF47A758560044D04469C
:100400000560039D416105610276C36130BD00BF97
:10041000A822080038B5436904465D69E90704D598
:1004200099690069C9B2054B984715F0600F04D06F
:1004300063691A6842F480721A6038BD6503080067
:10044000012070470369186C5B6CC01A00F03F0014
:10045000704703695A6C196C914214BF985C4FF055
:10046000FF30704703695A6C196C914205D0985C53
:10047000013202F03F025A6470474FF0FF3070477C
:10048000426953699B07FCD5704743695A699207D3
:10049000FCD5D9610120704730B5002545604FF487
:1004A0007A758560044D04460560039D41610561D0
:1004B0000276C36130BD00BFD022080038B5436961
:1004C00004465D69E90704D599690069C9B2054B1D
:1004D000984715F0600F04D063691A6842F480727F
:1004E0001A6038BD65030800044BD3F80002D3F846
:1004F0000432C01AC005C00D704700BFC8080720ED
:10050000064BD3F80012D3F80422914203D0D3F85B
:100510000422985C70474FF0FF307047C8080720EE
:1005200013B5026802AB03F8011D54681946012295
:10053000A0471CBD08B50320014B984708BD00BF6C
:10054000390F080038B50F4B0446D3F80012D3F822
:100550000422914213D0D3F8042202209D5CD3F8E8
:1005600004220132D205D20DC3F80422064B98476B
:1005700018B1236820469B699847284638BD4FF03C
:10058000FF3038BDC808072025090800F8B5184B0A
:100590000121184D53E8002F12B1BFF32F8FF8BD82
:1005A00043E80012002AF4D1D5F80042124E01347B
:1005B000E405E40D114F11E00220B04720B9104BC3
:1005C0004FF480421A600DE00220B847D5F800329F
:1005D000C5F800420134E405E854E40DD5F80432CE
:1005E0009C42E9D1034B0022C3F80822F8BD00BFAA
:1005F000D00A0720C808072025090800DD090800DF
:1006000028C20A4010B5084B0446D87940B10320EF
:10061000064B9847002805DC01236360002010BDCD
:100620000123636010BD00BF40000720010A0800DD
:1006300008B5037803490233037042220020024BBD
:10064000984708BDF0220800550A080008B503784D
:1006500003490233037042220020024B984708BD31
:1006600032230800550A080008B502784378A12A09
:1006700007D10020212B20D112490722124B984785
:100680001EE0212A1AD1202B04D107210F4B0D483F
:10069000984715E0222B11D182780A4BDA711A683B
:1006A000B2F5966F0CD1DB79DB0703D4FA20084B47
:1006B000984705E0074B984702E008BD002008BDB9
:1006C000012008BD40000720550A0800990A0800CB
:1006D0000D03080019030800054B0022C3F810227F
:1006E0004FF47A72C3F81422024AC3F80C227047FE
:1006F000C808072080230800036870B59B6804467B
:100700000E46984723680546DB68204631469847E1
:10071000E8B270BD08B503780349013303701922AC
:100720000020024B984708BDA0230800550A080086
:1007300008B5002002496522024B984708BD00BF5A
:10074000B9230800550A080000B591B08DF80000E3
:10075000002304E0C81810F8010C0DF803009342C0
:1007600003F10103F6D11A4604206946014B98476C
:1007700011B000BD010A080002784378A12A05D112
:10078000012B12D0033B584258417047212A0ED109
:100790000B2B03D18278074B1A7004E00A2B06D189
:1007A0008278044B5A700120704718467047002029
:1007B000704700BF4C00072008B502200822014BFB
:1007C000984708BD4907080008B501460023837211
:1007D000C372037343738373C37301F8083F014B00
:1007E000984708BDB9070800872938B502D978317C
:1007F000C9B218E00B0609D50123803903FA01F1CB
:10080000037A23EA0101017200210CE0104B591810
:1008100091F89C10D1B10A0605D5037A01F07F0149
:1008200023F00203037203460622002419B19D7AC5
:100830008D4208BF9C72013A013312F0FF02F5D1DC
:1008400000F10801034B9847012038BD084638BD28
:10085000A0230800B9070800872910B502D978310C
:10086000C9B218E00B0608D50123803903FA01F15B
:10087000037A1943017200210DE01A4B591891F8BF
:100880009C1001B929E00A0605D5037A01F07F0121
:1008900043F002030372837A8B4218D0C37A8B42EF
:1008A00015D0037B8B4212D0437B8B420FD0837BCE
:1008B0008B420CD0C37B8B4209D00023C218947AA0
:1008C0000CB9917203E00133062BF7D105E000F17A
:1008D0000801054B9847012010BD0123436000200B
:1008E00010BD00BFA0230800B9070800034B002279
:1008F0001A709A60024A5A60704700BFE80A0720DF
:1009000028240800064B02E05A68D10707D4D3F820
:100910003021D207F8D5024B0122C3F8602170477D
:1009200000C00A4038B5094C256872B6BFF35F8F26
:100930000023236000F00F00054B984725B10123E9
:100940002360BFF35F8F62B638BD00BF5800072039
:10095000351808002DE9F8431B4B0E461B6814465A
:100960009BB115E02846C04706F8010B4E45F9D16A
:100970001CB12846154B9847F0B10FB3144B012218
:100980001A60BFF35F8F62B61AE04FF0FF3417E0D2
:100990000F4B1F6872B6BFF35F8F002200F00F0588
:1009A0001A602846094B9847A04238BF044606EB18
:1009B0000409DFF82480D9E72846064B9847DCE78E
:1009C0002046BDE8F88300BFFC0A07203518080060
:1009D0005800072049180800C917080007B5074B39
:1009E00001220DF1070100F00F00984701280CBF0C
:1009F0009DF807004FF0FF300EBD00BF55090800FD
:100A0000124B2DE9F0471B6880461546C3B10E46D0
:100A1000144600F00F0ADFF838900EE0B8F1000F2E
:100A200014BF4FF400774027A74228BF274631461E
:100A300050463A46C847E41BF619002CEED101E0B7
:100A40004FF0FF352846BDE8F08700BFFC0A0720BD
:100A5000191708000E4B2DE9F04115465A689B689E
:100A600088469A4208DB0CE008EB0601224600208B
:100A7000B8473618241A02E0064F2C460026002CF0
:100A8000F2D1034B28465A68AA185A60BDE8F08193
:100A9000FC0A07201917080038B50C460546054B17
:100AA0009847002029462246034B9847034B984716
:100AB000204638BDB9160800ED170800E1160800F9
:100AC00008B503790BB9044B02E0022B02D1034BAA
:100AD000984708BD002008BD69060800790708008E
:100AE00013B5002302AC04F8013D2046034B9847A0
:100AF0002046034B98479DF807001CBD31060800AF
:100B00001507080013B5002302AC04F8013D204688
:100B1000034B98472046034B98479DF807001CBDA0
:100B20004D060800150708002DE9F0479D4C86B0DA
:100B30006368180717D52368002023F07F0323601C
:100B4000236842F2320143F080032360964B9847BA
:100B5000964B04221A604FF48053A361944B0022F9
:100B60001A600823A3608F4B5B68590408D5914B2A
:100B700002201860904B984710B19048904B9847CE
:100B8000884B5A68520701D504229A605B68D804E2
:100B900040F1B4818B4B9847002800F0AF810822C8
:100BA000002001A9884B9847884B98479DF804502E
:100BB00029064CBF864B874B984705F060021446C8
:100BC000002A40F085819DF8053083B99DF80440E6
:100BD00004B916E0764B1B7B0020012B01D10121CB
:100BE00000E001467C4B98470020014666E1012B5E
:100BF0000FD19DF80630012B6D4B01D15B7BEBE7EC
:100C00001A7320462146744DA84720462146A8471E
:100C10006AE1032B79D19DF80630012B05D1644A96
:100C20002046537321466C4B98479DF8060028B91F
:100C30005F4B01221A730146674B98479DF80630B7
:100C4000022B40F051819DF80430002B40F04C8184
:100C5000BDF808301A0740F04781524C1B0A626900
:100C6000013B22F001026261226842F400622260CC
:100C7000032B00F23981DFE803F0353C4302574B88
:100C800098470023C4F81833C4F8283341F23013CE
:100C9000C4F80831D4F80831424943F00203C4F8DB
:100CA0000831D1F838213F4B5403FAD5DA694C4C5E
:100CB00042F00402DA614B494B4B4C4AE01882186F
:100CC000127803F8012F8B42F7D1364B1A6842F4A1
:100CD00000421A600122C3F868214FF48042C3F831
:100CE0002822FEE73D4B9847236843F400532360D6
:100CF000FEE73A4B9847236843F480432360FEE7BE
:100D0000364B98473A4B6361FEE7052B06D1304BD3
:100D100098479DF80600374B9847E5E0062B40F0D2
:100D2000AA809DF80760224F022EBDF80A507A6013
:100D300003D1BA60DFF8C89073E0222EBD6006D1FF
:100D400030462D4B9847003018BF0120CBE0012ED4
:100D50000ED1082D01D101233B61284B396903F1E4
:100D6000120200290CBF11461946112D7ED816E03B
:100D7000032E47D19DF806301BB9204911F8243FB6
:100D80000BE0022B03D11D4911F8283F05E0012B90
:100D900040F0AC80194911F84A3FAB4266D9EAB23B
:100DA000A7E000BF00C00A4039160800F0C10A40A1
:100DB000FC0A072068C10A4025090800D40A072058
:100DC0008D050800F9160800ED170800091708003E
:100DD000A9160800C9160800A5170800050908008B
:100DE0003425080034001920FFFF18200100E7DF38
:100DF0007FF0077EA118080031070800C024080012
:100E0000E10A0800062E04D1092D75D8EAB23D4941
:100E10006FE0072E4FF0000468D13B4FDFF81491CC
:100E2000BC60C8474FF0090882462146424603A8E5
:100E3000364B984701238DF81130C0238DF81330BD
:100E4000FA238DF80C808DF80D608DF814307B68D6
:100E500003A94344ADF80E308DF810A042462C4B48
:100E600020467C60BD609847C8473DE00A78002076
:100E7000274B984738E0072B38D0082B04D1224B5A
:100E800010461968C9B219E0092B12D1E8062DD114
:100E9000204B2148052198479DF806201A4B1A60DF
:100EA0001E4B02221A604FF48042A3F5FC739A6134
:100EB0001AE00A2B05D1144B0020197D184B9847D6
:100EC00012E00B2B10D19DF806200F4B5A610BE05E
:100ED000144B98470C4BBDF80A20002159609A60CA
:100EE00001A8114B984708B1104B00E0104B9847F0
:100EF00004E0002ABBD1B9E70249B7E706B0BDE874
:100F0000F08700BF22250800FC0A0720951F080073
:100F1000550A0800691608006C250800F8C10A4047
:100F2000A5170800A9160800C10A0800C91608007C
:100F300021180800050B080010B5044B044698471B
:100F400010B12046024B984710BD00BF351808006D
:100F50007518080010B5064B044606489847064B1E
:100F6000984710B9054B01229A61204610BD00BF79
:100F700015150800290B080021150800FC0A072098
:100F800010B5044CA06920B1034B9847002323609F
:100F9000012010BDFC0A0720ED15080008B5024825
:100FA000024B984708BD00BF180B0720550F0800DB
:100FB000074B70B5DD6C074E0024EB0702D5A35933
:100FC00003B1984704346D08802CF6D170BD00BF82
:100FD000000E0E40200B0720074B70B5DD6C074E4E
:100FE0000024EA0702D5A35903B1984704346D08D9
:100FF000802CF6D170BD00BF00100E40A00B072062
:10100000074B70B5DD6C074E0024E90702D5A359E4
:1010100003B1984704346D08802CF6D170BD00BF31
:1010200000120E40200C0720074B70B5DD6C074EF8
:101030000024E80702D5A35903B1984704346D088A
:10104000802CF6D170BD00BF00140E40A00C07200C
:1010500070B5054C0546A047044E451900E0B04761
:10106000A047A842FBD370BDF9140800E1010800B5
:101070000023034A1946995401334F2BFBD1704783
:10108000210D072070B51C254543154E7419237B8F
:10109000002B24D0012915D002D302291FD107E04B
:1010A000104BA0689847705903216268002306E03E
:1010B0000C4BA068984770596268032101230A4CC1
:1010C000A04770BD75590521236928466268064E00
:1010D000B047AB69013302D1A068044B984770BD9B
:1010E0008025080045140800B91308008914080079
:1010F0001C2273B550430D4B0E461A18117BA1B13B
:101100001D58546828462146094B984728B9284657
:1011100021463246074B984707E0012300932146BA
:10112000284632460023044CA0477CBD8025080099
:10113000191408003D130800951308001549164AB4
:1011400010B5914207D1154B154A00210BE05858B4
:101150009850043301E0134C00239818A042F6D3B2
:10116000F1E743F8041B9342FBD30F4A0F4B22F0E5
:10117000604102F1604221F07F01B2F5801F996069
:1011800003D29A6842F000529A60094B9847094B83
:101190009847FEE7EC2F080000000720A008072072
:1011A000AC0F0720A00807200000080000ED00E0B9
:1011B000311B0800911208001C4A4FF48063136031
:1011C000C2F800321A4B1A6AD10103D5194A1A62C1
:1011D000174A05E0184A1A629A6ED207FCD5F5E75D
:1011E000936E13F4803F124BFAD01A6B22F0030275
:1011F00042F001021A63996E0D4A0807FBD50F4BA6
:10120000114693628B6E0A4A13F0020FFAD0112333
:101210001363916E064B0907FBD512221A639A6E6F
:101220001207FCD5064A074B1A607047000A0E40A9
:1012300000060E400908370109083700013F0D205C
:1012400000BD01055000072008B5034B01211868B7
:10125000024B984708BD00BF5400072085100800C6
:1012600070B5084E01213068074DA847074C4FF470
:10127000FA70A04730680021A8474FF4FA70A047E1
:1012800070BD00BF54000720F11008005110080085
:1012900008B5084B98470120074B9847074B08486B
:1012A0009847084B9847084D084CA847002CFCD09D
:1012B000A047FAE71919080051100800810F08002B
:1012C000180B0720491208006112080000000000F6
:1012D00030B552000124046040F202250024B1FB25
:1012E000F2F144604A1EC0F820511B04C0F80441CA
:1012F000C0F814414568120603F4702343EA124211
:1013000015434560204630BD4368D2011943D3B22E
:1013100019434160704710B54468090622431B0712
:1013200001F07064224303F040531A43426010BD41
:101330004FF6FF7343617047816270470AB141669F
:10134000704701667047426405290DD8DFE801F057
:101350000D03090D0D0D036F016F0B4023EA02030E
:1013600001E0036F1343036742607047D307416492
:101370004CBF4166016612F00A0F14BF0162416260
:10138000930700D501E0130701D5C0F88010416133
:101390000160704710B5029C41640CB1416600E0E9
:1013A00001660BB1016500E041650AB1016300E02F
:1013B00041630161016010BDF7B51E464B1E054635
:1013C0000F461446042B1FD8DFE803F003030C126A
:1013D00012000E4B22469847F3076C644CBF6C66B4
:1013E0002C6603E021463246094B984701200CE069
:1013F00021467C1F06F00103624200936241C6F35E
:101400008003044CA047F1E70020FEBD471308000D
:101410006D1308009513080083680B4005D083699D
:1014200019420CBF00200120704718467047000089
:10143000034B4FF44412DA619A6E5206FCD57047A2
:1014400000060E402C2819D81F280E4B4FF0010221
:1014500008D802FA00F0996900EA010282420FD02E
:1014600018610DE0203802FA00F0D3F8081100EA04
:101470000102824204D0C3F8000101E0012070475C
:101480000020704700060E402C2817D81F280D4B4F
:101490004FF0010107D801FA00F09A690240824238
:1014A0000ED15A610CE0203801FA00F0D3F808217F
:1014B0000240824204D1C3F8042101E001207047B8
:1014C0000020704700060E40000200F47062024BDC
:1014D00042F001029A63704700060E40014B202241
:1014E0001A60704700060E40024B1A6801321A60FB
:1014F000704700BF7C0D0720014B1868704700BF84
:101500007C0D072008B5024B1B6803B1984708BD46
:10151000800D0720014B1860704700BF800D072029
:1015200010B500232A491A4641F8232001EB830015
:10153000013300240A2B8262F6D12820254B9847DC
:10154000254B98472046254B9847254B9847254BD8
:101550004FF4807283F828435A60234B2046D3F817
:10156000002822F08072C3F80028D3F8002842F047
:101570000072C3F80028D3F8002822F08072C3F864
:101580000028D3F8002822F48052C3F80028D3F8AA
:10159000002842F48052C3F80028D3F8002842F40F
:1015A0000042C3F80028D3F8002822F48042C3F890
:1015B00000281A6822F480521A601A6822F44062E5
:1015C0001A60D3F8002842F48042C3F8002810BD06
:1015D000840D07204514080031140800C9140800C0
:1015E000DD14080000E100E000C00A40104B1A685A
:1015F00072B6BFF35F8F002119600E4BD3F800184D
:10160000184621F48041C3F80018D0F80418094B9B
:101610004904FAD5196821F480711960082199618B
:101620002AB1034B01221A60BFF35F8F62B6704785
:101630005800072000C00A4000F00F00094B00F1DD
:10164000400243F82210012202FA00F2D9690A434B
:10165000DA6103F5987353F82030580300D4FEE79D
:10166000704700BF00C00A40012370B50C4A1D46F8
:1016700013E050F8046F03F1400442F8246005FAC7
:1016800003F6D4693443D461064C1C19A4002468C1
:1016900014F4802F00D1FEE701338B42E9D370BDF3
:1016A00000C00A404CB00210024AD2F83031DB07C9
:1016B000FBD5704700C00A40024AD2F83031990782
:1016C000FBD5704700C00A40034B0122C3F86021DC
:1016D000024B00221A60704700C00A40840D0720A8
:1016E000034B0222C3F86021024B00229A6270472A
:1016F00000C00A40840D0720024BD3F8300100F0EF
:101700000400704700C00A40024B0422C3F8602165
:10171000704700BF00C00A4038B50346C00300F15F
:1017200000501D4D144600F5C01003F14C0255F851
:101730002220D207F9D5194A3BB915686519402D01
:1017400006D91468C4F1400402E0002542F8235091
:1017500052F823208018002202E08D5C855401326B
:10176000A242FAD10D4A52F82310611842F8231010
:101770002BB91368402B0DD1094B98470AE0064A54
:1017800003F15801012042F8210088334FF48041D1
:1017900042F82310204638BD00C00A40840D0720BF
:1017A000C9160800074B53F8202002EBC03202F1A3
:1017B000005202F5C012117053F82020013243F894
:1017C00020207047840D0720074B03EB80039A6AA3
:1017D00002EBC0309A6A00F10050013200F5C010EF
:1017E00000789A62704700BF840D072070B50B4CDB
:1017F000C50304EB80039B6A05F1005505F5C01590
:10180000ED18002302E0EE5CCE5401339342FAD18E
:1018100004EB8000826A9B18836270BD840D0720F0
:10182000034B0122DA614FF40022C3F8F021704724
:1018300000C00A40034B4C3053F82000C0F30A505C
:10184000704700BF00C00A40084B00F15802022157
:1018500043F8221000F188024FF4804143F822102F
:10186000034B03EB800000238362704700C00A40F3
:10187000840D0720084B00F15802012143F8221083
:1018800000F188024FF4804143F82210034B0022FC
:1018900043F82020704700BF00C00A40840D072095
:1018A000064B00F07F001A6822F07F0202431A60A4
:1018B0001A6842F080021A60704700BF00C00A40F8
:1018C0004FF400434360704708B50248024B984705
:1018D00008BD00BFD40D07201504080008B5024854
:1018E000024B984708BD00BFF40D0720BD04080057
:1018F00008B50248024B984708BD00BF140E0720E8
:10190000BD04080008B50248024B984708BD00BF57
:10191000340E0720BD0408002DE9F0413D4B9847E7
:101920003D4BF0211A684FF47A73B2FBF3F23B4B54
:10193000013A5A603A4A002482F8231007229C6038
:1019400038481A60384B9847384B9847384D2046EE
:1019500000210134A8474F2CF9D1364D364FDFF81E
:101960000881364B4FF0FF36354CC5F8A060012199
:10197000C7F8A0604FF44072C3F8A0602846002367
:10198000C8F8A060A04700200121294B98470121F9
:10199000002328464FF44062A04701210023284637
:1019A0004FF44052A0470221302200234046A04776
:1019B0000121002338464FF44062A0470121032251
:1019C00000232846A04701214FF440420023384617
:1019D000A04725201B4B98470F4B1B4A19681B4CEF
:1019E0000C231B48A0470123194800214FF4401243
:1019F000184CA04700210A461548174B9847314616
:101A00001348164B98471248154B9847154B984763
:101A1000BDE8F081B91108005000072010E000E097
:101A200000ED00E0501A0E40C1180800311B0800FC
:101A3000F1100800000E0E4000100E4000120E4083
:101A4000B913080045140800002D3101D112080017
:101A500000000C4017130800091308003913080090
:101A6000311308007110080000140E402DE9F341F5
:101A7000184C194D04F180063046A8470822134639
:101A80001649009604F1C8082046154EB04704F5E3
:101A900088774046A84704F5AC763846A8473046D4
:101AA000A847112213460F4DCDF8008004F1200005
:101AB0000D49A84712221346009704F140000B4934
:101AC000A8471422009604F1600009491346A8476C
:101AD000BDE8FC81D40D07204903080000080E4032
:101AE000F1030800990408000080094000C0094083
:101AF00000400A40014600200246034600F06CBA4E
:101B000070B5094B094C0025E41AA41003EB8406B8
:101B100002E072599047013C043D002CF9D1BDE828
:101B2000704001F05BBA00BFE82F0800EC2F0800FE
:101B300070B50E4B0E4D0024ED1AAD101E4603E09D
:101B400056F8242090470134AC42F9D101F032FA22
:101B5000084D094B0024ED1AAD101E4603E056F85F
:101B6000242090470134AC42F9D170BDC02F080049
:101B7000C02F0800DC2F0800C02F0800024B0146D0
:101B8000186800F00BB800BF60000720024B014648
:101B9000186800F0C7BA00BF600007202DE9F047C1
:101BA00001F10B04162C064603D934F0070401D5C5
:101BB00002E010248C4202D20C233360D3E1304681
:101BC00000F0F0F9B4F5FC7F14D2A04BE20803EB6F
:101BD000C203DD689D4205D105F108036D6902323B
:101BE0009D4244D0EA68A9686B68CA6023F0030389
:101BF000916059E0620A01D1E2081BE0042A02D890
:101C0000A209383216E0142A01D85B3212E0542AB5
:101C100002D8220B6E320DE0B2F5AA7F02D8E20B99
:101C2000773207E040F254539A4202D8A20C7C3239
:101C300000E07E22854B03EBC203DD6814E0696897
:101C400021F00301081B0F2801DD013A0EE00028F6
:101C500009DBEB68AA68D3609A606B185A6842F097
:101C600001025A608BE1ED689D42E8D1013277496B
:101C70000D6901F10807BD4267D06B6823F00303CB
:101C8000181B0F280CDD2B1940F0010244F0010451
:101C90006C604B610B61DF609F605A6018506EE1B1
:101CA00000284F610F6101DBEB18D7E7B3F5007F28
:101CB0000FD2DB089810012707FA00F7486838436D
:101CC000486001EBC3018B68E960AB60DD608D604B
:101CD0003BE0580A042802D89809383016E0142846
:101CE00001D85B3012E0542802D8180B6E300DE09A
:101CF000B0F5AA7F02D8D80B773007E040F25451F4
:101D0000884202D8980C7C3000E07E20DFF83CE16D
:101D10000EEBC007B968B9420DD10123801003FA58
:101D200000F0DEF804300343CEF804300B4608E040
:101D30008968B94204D0486820F003008342F7D391
:101D4000CB68EB60A960CD609D600121931001FA22
:101D500003F33E4949688B425DD80B4205D122F01E
:101D600003025B0004320B42FBD0384800EBC20C8C
:101D7000E6461746DEF80C502CE0696821F00308AF
:101D8000C4EB08010F2913DD2B1944F00104EA68A4
:101D90006C6055F8080F5950C26090602B4A53612F
:101DA00013610832DA609A6041F001025A600CE077
:101DB00000290EDB05EB08035A6842F001025A6065
:101DC000EB6855F8082FD3609A60304600F0EBF8C6
:101DD000D9E0ED687545D0D10137B90705F1080E96
:101DE000C8D16146950704D1426822EA03024260E5
:101DF00005E0A1F108050968013AA942F2D041685D
:101E00005B008B4207D833B13A4601E004325B00F5
:101E10000B42ABD1FAE70D4B9F687A6822F00309B9
:101E2000A1451A4604D3C4EB09030F2B00F39D8090
:101E3000074B07EB090A1B6804EB0308D2F80834C8
:101E4000013307D108F110080CE000BF900407200F
:101E5000740F072008F5805808F10F0828F47F68F0
:101E600028F00F083046414600F09EF8421C054617
:101E70006BD0504502D2454B9F4266D1444A5545EE
:101E8000536843445360414A07D1290505D19368FB
:101E9000C84448F001025A604CE0D2F808240132EC
:101EA00003D13A4BC3F8085404E0CAEB050A384A98
:101EB0005344536015F007031CBFC3F10803ED182A
:101EC000A84403F580534FEA0858A3EB185841463D
:101ED000304600F069F82E4A431C536804BF4FF0A7
:101EE0000008284643445360401B284B404440F0C0
:101EF00001009F429D6068601CD0B9F10F0F02D8AD
:101F000001236B6021E07B68A9F10C0929F0070926
:101F100003F0010349EA03037B60052207EB090391
:101F2000B9F10F0F5A609A6004D9304607F10801E1
:101F300000F0F8F8164A5368D16A8B4288BFD36222
:101F4000126B934284BF124A1363104B9B685A680A
:101F500022F00302A242C4EB020301D30F2B04DCE4
:101F6000304600F020F800250DE0084A44F0010159
:101F7000956843F001032C196960946063603046F2
:101F800000F011F808352846BDE8F08790040720D6
:101F9000740F07208218034601E003F8011B9342E7
:101FA000FBD170477047704738B5064C0023054693
:101FB00008462360FEF7E2F9431C02D1236803B10F
:101FC0002B6038BDA80F0720034613F8012B002A09
:101FD000FBD1181A013870472DE9F8439846234B76
:101FE00006461C680F46D4F84801914618B904F516
:101FF000A670C4F8480141681F2916DD1C4B1BB9A7
:102000004FF0FF30BDE8F8834FF4C870FFF7B6FD1E
:102010000028F5D0D4F84811002545600160C4F8C7
:102020004801C0F88851C0F88C51B6B1446801220B
:1020300002FA04F2D0F8881100EB84031143022E57
:10204000C3F88890C0F888111C46C3F8088104D1F1
:10205000D0F88C311A43C0F88C2143689A1C0133A4
:1020600040F8227043600020BDE8F883AC2F0800E0
:102070007D1B0800024B13B10248FFF73BBD7047C0
:1020800000000000011B0800F8B5234D0E46044671
:10209000FFF788FFAB685F6827F0030707F6EF7369
:1020A0009E1B26F47F6626F00F06A6F58056B6F531
:1020B000805F04DA2046FFF776FF0020F8BD00219C
:1020C0002046FFF771FFAB68DB199842F2D17142ED
:1020D0002046FFF769FF013010D100212046FFF7AD
:1020E00063FFAB68C21A0F2AE4DD0C4942F001021B
:1020F00009685A60401A0A490860DBE7AB68BF1BF1
:1021000047F001075F60064B20461A68961B1E6069
:10211000FFF749FF0120F8BD900407209808072029
:10212000780F0720F8B506460D46002900F0A58077
:10213000FFF738FF55F804CC504FA5F108032CF0F9
:1021400001029C18B96860688C4220F003000CF012
:1021500001011CD1821839B955F8081C5B1A98681E
:102160005218D968C160886042F001015960434942
:102170008B60434B1B689A4204D3424B304619682C
:10218000FFF782FF3046BDE8F840FFF70CBF606004
:1021900059B955F8085C08375B1B52199D68BD4258
:1021A00005D0DF68EF60BD6002E0002100E00121A2
:1021B00025186D6815F0010F0FD1121849B9A068E4
:1021C000314DA84205D1EB60AB60D8609860012129
:1021D00003E0E068A468E060846042F001005860B9
:1021E0009A500029CED1B2F5007F0CD2D2089010BF
:1021F000012404FA00F42149486801EBC20220439B
:102200004860916834E0540A042C02D894093834A8
:1022100016E0142C01D85B3412E0542C02D8140BB5
:102220006E340DE0B4F5AA7F02D8D40B773407E002
:1022300040F254518C4202D8940C7C3400E07E244D
:102240000E4D05EBC400816881420BD10122A41020
:1022500002FA04F46A6822436A600A4608E0896860
:10226000814204D04C6824F00304A242F7D3CA6828
:10227000DA6099609360CB6084E7F8BD9004072032
:102280009C080720740F0720980407200000000016
:102290000000000000000000E9010800000000004C
:1022A0000000000000000000E30308004D020800E9
:1022B0009D030800BD030800AB030800D903080014
:1022C000990308000000000000000000000000006A
:1022D0008B0408004D02080045040800650408004E
:1022E00053040800810408004104080000000000B5
:1022F000080B0002020201000904000001020200B2
:102300000005240010010524010101042402060532
:1023100024060001070581031000100904010002D2
:102320000A00000007050202000200070583020000
:102330000200080B00020202010009040000010271
:1023400002000005240010010524010101042402FB
:102350000605240600010705810310001009040189
:1023600000020A0000000705020240000007058382
:10237000024000000000000000000000000000001B
:102380002105080005060800E904080045050800C5
:1023900001050800350508008D0508000000000053
:1023A00009040200010300000009210101000122CB
:1023B00065000705840340000105010902A1010928
:1023C00001A10085010509190129031500250195C1
:1023D0000375018102950175058103050109300925
:1023E0003109381581257F750895038106C0C00520
:1023F000010906A1018502050719E029E715002555
:10240000017501950881029501750881039506758E
:1024100008150025650507190029658100C0000021
:102420000000000000000000F90608004D0208004E
:1024300059080800E9070800C90708000000000063
:10244000000000002A2B280000000000000000000F
:102450000000000000000000000000002C9EB4A05E
:10246000A1A2A434A6A7A5AE362D3738271E1F205B
:10247000212223242526B333B62EB7B89F84858620
:102480008788898A8B8C8D8E8F9091929394959664
:102490009798999A9B9C9D2F3130A3AD35040506E2
:1024A0000708090A0B0C0D0E0F1011121314151644
:1024B0001718191A1B1C1DAFB1B0B50000000000A1
:1024C000120100020200004041233E00000101020F
:1024D0000001120100020000004041233E00000103
:1024E0000102000104030904220341007200640098
:1024F000750069006E006F002000440075006500E3
:10250000200020002000200020001803410072005D
:102510006400750069006E006F0020004C004C00E4
:1025200043000A0600020000004001000000000015
:1025300000000000000000000000000000AAAAAA9D
:10254000AAAAAAAAAAEEEEEEEEEEEEEEEEFEFFFFCD
:10255000FFFFFFFFFFFFFFFFFF7FBFDFEFF7FBFD89
:10256000FC7EBFDFEFF7FBFD7E00000032200000A5
:102570003639000066300000663100003639000050
:10258000000E0E40000100000B00000001000000E2
:102590000000000004000000FFFFFFFF000E0E40DF
:1025A000000200000B00000001000000000000001D
:1025B00004000000FFFFFFFF00100E4000000002BB
:1025C0000C000000020000000000000014000000E9
:1025D000FFFFFF0000120E40000000100D00000081
:1025E000020000000000000014000000FFFFFF0ECA
:1025F00000120E40000000040D0000000200000068
:102600000000000014000000FFFFFF0D00120E404C
:10261000000000020D0000000200000000000000A9
:1026200014000000FFFFFF0C00120E40000000012C
:102630000D00000002000000000000000C0000007F
:10264000FFFF07FF00120E40000080000D00000099
:1026500002000000000000000C000000FFFF06FF69
:1026600000120E40000040000D00000002000000BB
:10267000000000000C000000FFFF05FF00120E40EC
:10268000000020000D00000002000000000000001B
:102690000C000000FFFF04FF00120E4000000020AD
:1026A0000D00000002000000000000001400000007
:1026B000FFFFFF0F00140E40800000000E0000001E
:1026C000020000000000000014000000FFFFFF10E7
:1026D00000140E40000100000E0000000200000087
:1026E0000000000014000000FFFFFF1100100E406A
:1026F000000000080C0000000200000000000000C4
:1027000014000000FFFFFF0100140E401000000045
:102710000E000000020000000000000004000000A5
:10272000FFFFFFFF00140E40200000000E0000001D
:10273000020000000000000004000000FFFFFFFF97
:10274000000E0E40002000000B0000000100000001
:102750000000000004000000FFFFFFFF000E0E401D
:10276000001000000B00000001000000000000004D
:1027700004000000FFFFFFFF000E0E4000080000F5
:102780000B00000001000000000000000400000039
:10279000FFFFFFFF000E0E40000400000B000000D2
:1027A000010000000000000004000000FFFFFFFF28
:1027B00000100E40001000000C000000010000009E
:1027C0000000000004000000FFFFFFFF00100E40AB
:1027D000002000000C0000000100000000000000CC
:1027E00004000000FFFFFFFF00100E400000000487
:1027F0000C000000040000000000000004000000C5
:10280000FFFFFFFF000E0E40004000000B00000025
:10281000040000000000000004000000FFFFFFFFB4
:10282000000E0E40008000000B00000004000000BD
:102830000000000004000000FFFFFFFF00140E4036
:10284000010000000E000000040000000000000075
:1028500004000000FFFFFFFF00140E400200000014
:102860000E00000004000000000000000400000052
:10287000FFFFFFFF00140E40040000000E000000E8
:10288000040000000000000004000000FFFFFFFF44
:1028900000140E40080000000E00000004000000BC
:1028A0000000000004000000FFFFFFFF00140E40C6
:1028B000400000000E0000000400000000000000C6
:1028C00004000000FFFFFFFF00140E4000020000A4
:1028D0000E000000040000000000000004000000E2
:1028E000FFFFFFFF000E0E40800000000B00000005
:1028F000040000000000000004000000FFFFFFFFD4
:1029000000140E40000400000E000000040000004F
:102910000000000004000000FFFFFFFF00120E4057
:10292000020000000D000000040000000000000094
:1029300004000000FFFFFFFF00120E400400000033
:102940000D00000004000000000000000400000072
:10295000FFFFFFFF00120E40080000000D00000006
:10296000040000000000000004000000FFFFFFFF63
:1029700000120E40100000000D00000004000000D6
:102980000000000004000000FFFFFFFF00120E40E7
:10299000200000000D000000040000000000000006
:1029A00004000000FFFFFFFF00120E404000000087
:1029B0000D00000004000000000000000400000002
:1029C000FFFFFFFF00120E40800000000D0000001E
:1029D000040000000000000004000000FFFFFFFFF3
:1029E00000120E40000100000D0000000400000075
:1029F0000000000004000000FFFFFFFF00120E4077
:102A0000000200000D0000000400000000000000B3
:102A100004000000FFFFFFFF000E0E400000080052
:102A20000B00000004000000000000000400000093
:102A3000FFFFFFFF000E0E40000010000B00000023
:102A4000040000000000000004000000FFFFFFFF82
:102A500000120E40000008000D00000004000000FD
:102A60000000000004000000FFFFFFFF00120E4006
:102A7000000004000D000000040000000000000041
:102A800004000000FFFFFFFF00120E4000000200E4
:102A90000D00000004000000000000000400000021
:102AA000FFFFFFFF00120E40000001000D000000BC
:102AB000040000000000000004000000FFFFFFFF12
:102AC00000120E40008000000D0000000400000015
:102AD0000000000004000000FFFFFFFF00120E4096
:102AE000004000000D000000040000000000000095
:102AF00004000000FFFFFFFF00120E400020000056
:102B00000D000000040000000000000004000000B0
:102B1000FFFFFFFF00120E40001000000D0000003C
:102B2000040000000000000004000000FFFFFFFFA1
:102B300000100E40000020000C0000000400000007
:102B40000000000004000000FFFFFFFF00100E4027
:102B5000004000000C000000040000000000000025
:102B600004000000FFFFFFFF000E0E400000010008
:102B70000B00000003000000000000000200000045
:102B80000007FFFF000E0E40000000010B000000D8
:102B90000300000000000000020000000106FFFF2B
:102BA000000E0E40000080000B000000030000003B
:102BB00000000000020000000205FFFF000E0E40B2
:102BC000000040000B0000000300000000000000B7
:102BD000020000000304FFFF000E0E404000000052
:102BE0000B000000030000000000000002000000D5
:102BF0000403FF05000E0E40100000000B00000053
:102C00000300000000000000020000000502FFFFBA
:102C1000000E0E40080000000B0000000300000042
:102C200000000000020000000601FF03000E0E403D
:102C3000040000000B000000030000000000000082
:102C4000020000000700FF0200100E40000002001A
:102C50000C00000003000000000000000200000063
:102C6000080AFFFF00100E40000004000C000000E6
:102C7000030000000000000002000000090BFFFF3D
:102C800000100E40000008000C00000003000000CF
:102C900000000000020000000A0CFFFF00100E40C0
:102CA000000010000C000000030000000000000005
:102CB000020000000B0DFFFF00100E40008000001E
:102CC0000C000000030000000000000002000000F3
:102CD0000C10FFFF00100E40000001000C0000006F
:102CE0000300000000000000020000000D11FFFFC3
:102CF000000E0E40020000000B000000010000006A
:102D000000000000040000000EFFFFFF000E0E4058
:102D1000010000000B0000000100000000000000A6
:102D2000040000000FFFFFFF000E0E400000020035
:102D30000B00000001000000000000000400000083
:102D4000FFFFFFFF000E0E40000004000B0000001C
:102D5000010000000000000004000000FFFFFFFF72
:102D600000120E40000000400D00000004000000B2
:102D70000000000004000000FFFFFFFF000E0E40F7
:102D8000000020000B000000040000000000000014
:102D900004000000FFFFFFFF000E0E4000000002D5
:102DA0000B00000001000000000000000400000013
:102DB000FFFFFFFF000E0E40000000040B000000AC
:102DC000010000000000000004000000FFFFFFFF02
:102DD000000E0E40000000080B0000000100000083
:102DE0000000000004000000FFFFFFFF000E0E4087
:102DF000000000100B0000000100000000000000B7
:102E000004000000FFFFFFFF00100E4000008000E4
:102E10000C000000020000000000000004000000A0
:102E2000FFFFFFFF000E0E40000006000B00000039
:102E3000010000000000000005000000FFFFFFFF90
:102E400000100E40003000000C00000001000000E7
:102E50000000000005000000FFFFFFFF000E0E4015
:102E6000000300000B000000010000000000000053
:102E700005000000FFFFFFFF000E0E40000C0000E9
:102E80000B00000001000000000000000500000031
:102E9000FFFFFFFF000E0E40003000000B0000009F
:102EA000010000000000000005000000FFFFFFFF20
:102EB00000140E40300000000E0000000200000070
:102EC0000000000005000000FFFFFFFF00100E40A3
:102ED000000C00000C0000000100000000000000D9
:102EE00004000000FFFFFFFF00100E400000200064
:102EF0000C000000020000000000000004000000C0
:102F0000FFFFFFFF000E0E40000000200B0000003E
:102F1000010000000000000004000000FFFFFFFFB0
:102F200000100E40008000000C00000001000000B6
:102F30000000000004000000FFFFFFFF00100E4033
:102F4000004000000C000000010000000000000034
:102F500004000000FFFFFFFF000E0E400300000012
:102F60000B00000001000000000000000500000050
:102F7000FFFFFFFF00100E4000C000000C0000002B
:102F8000010000000000000005000000FFFFFFFF3F
:102F90000000000000000000000000000000000031
:102FA0000000000000000000FFFFFFFF6800072096
:102FB00043000000F8B500BFF8BC08BC9E4670474F
:102FC000752008006D01080031020800D9060800CC
:102FD000ED0808009D0F08006D1A0800F8B500BF45
:0C2FE000F8BC08BC9E4670474501080084
:102FEC0072B6094A936813F0010F074BFAD0074ADF
:102FFC005A609A68D207FCD5054B013BFDD1054AB6
:10300C00054B1A60FEE700BF000A0E400C01005A87
:10301C0040420F00050000A5001A0E40FFFFFFFF05
:10302C0000E1000000000800FFFFFFFF01010000AD
:10303C0000093D000D000000010000000000000030
:10304C006800072000000000000000005403072067
:10305C00BC0307202404072000000000000000002F
:10306C000000000000000000000000000000000054
:10307C00000000000000000000000000B02F08005D
:10308C000000000000000000000000000000000034
:10309C000000000000000000000000000000000024
:1030AC000000000000000000000000000000000014
:1030BC000000000000000000000000000000000004
:1030CC0000000000000000000000000000000000F4
:1030DC0000000000000000000000000000000000E4
:1030EC0000000000000000000000000000000000D4
:1030FC0001000000000000000E33CDAB34126DE671
:10310C00ECDE05000B0000000000000000000000D9
:10311C0000000000000000000000000000000000A3
:10312C000000000000000000000000000000000093
:10313C000000000000000000000000000000000083
:10314C000000000000000000000000000000000073
:10347C0000000000000000009004072090040720CA
:10348C009804072098040720A0040720A004072014
:10349C00A8040720A8040720B0040720B0040720C4
:1034AC00B8040720B8040720C0040720C004072074
:1034BC00C8040720C8040720D0040720D004072024
:1034CC00D8040720D8040720E0040720E0040720D4
:1034DC00E8040720E8040720F0040720F004072084
:1034EC00F8040720F8040720000507200005072032
:1034FC0008050720080507201005072010050720E0
:10350C00180507201805072020050720200507208F
:10351C00280507202805072030050720300507203F
:10352C0038050720380507204005072040050720EF
:10353C00480507204805072050050720500507209F
:10354C00580507205805072060050720600507204F
:10355C0068050720680507207005072070050720FF
:10356C0078050720780507208005072080050720AF
:10357C00880507208805072090050720900507205F
:10358C009805072098050720A0050720A00507200F
:10359C00A8050720A8050720B0050720B0050720BF
:1035AC00B8050720B8050720C0050720C00507206F
:1035BC00C8050720C8050720D0050720D00507201F
:1035CC00D8050720D8050720E0050720E0050720CF
:1035DC00E8050720E8050720F0050720F00507207F
:1035EC00F8050720F805072000060720000607202D
:1035FC0008060720080607201006072010060720DB
:10360C00180607201806072020060720200607208A
:10361C00280607202806072030060720300607203A
:10362C0038060720380607204006072040060720EA
:10363C00480607204806072050060720500607209A
:10364C00580607205806072060060720600607204A
:10365C0068060720680607207006072070060720FA
:10366C0078060720780607208006072080060720AA
:10367C00880607208806072090060720900607205A
:10368C009806072098060720A0060720A00607200A
:10369C00A8060720A8060720B0060720B0060720BA
:1036AC00B8060720B8060720C0060720C00607206A
:1036BC00C8060720C8060720D0060720D00607201A
:1036CC00D8060720D8060720E0060720E0060720CA
:1036DC00E8060720E8060720F0060720F00607207A
:1036EC00F8060720F8060720000707200007072028
:1036FC0008070720080707201007072010070720D6
:10370C001807072018070720200707202007072085
:10371C002807072028070720300707203007072035
:10372C0038070720380707204007072040070720E5
:10373C004807072048070720500707205007072095
:10374C005807072058070720600707206007072045
:10375C0068070720680707207007072070070720F5
:10376C0078070720780707208007072080070720A5
:10377C008807072088070720900707209007072055
:10378C009807072098070720A0070720A007072005
:10379C00A8070720A8070720B0070720B0070720B5
:1037AC00B8070720B8070720C0070720C007072065
:1037BC00C8070720C8070720D0070720D007072015
:1037CC00D8070720D8070720E0070720E0070720C5
:1037DC00E8070720E8070720F0070720F007072075
:1037EC00F8070720F8070720000807200008072023
:1037FC0008080720080807201008072010080720D1
:10380C001808072018080720200807202008072080
:10381C002808072028080720300807203008072030
:10382C0038080720380807204008072040080720E0
:10383C004808072048080720500807205008072090
:10384C005808072058080720600807206008072040
:10385C0068080720680807207008072070080720F0
:10386C0078080720780807208008072080080720A0
:10387C008808072088080720FFFFFFFF00000200D0
:00000001FF
